:020000040800F2
:10000000E047002095190008991900089B1900087D
:100010009D1900089F190008A119000800000000A0
:1000200000000000000000000000000001010008C6
:10003000A5190008000000004501000879550008D6
:10004000AB190008AB190008AB190008AB19000880
:10005000AB190008AB190008AB190008AB19000870
:10006000AB190008AB190008AB190008AB19000860
:10007000AB190008AB190008AB190008AB19000850
:10008000AB190008AB190008AB190008AB19000840
:10009000AB190008AB190008AB190008AB19000830
:1000A000AB190008AB190008AB190008AB19000820
:1000B000C9040008AB190008AB190008AB19000807
:1000C000AB190008AB190008AB190008AB19000800
:1000D000AB190008A1030008AB190008AB19000810
:1000E000AB190008AB190008AB190008DFF80CD0F9
:1000F00005F01CFB00480047BD060008E047002053
:10010000224B19680868B0E8F00F80F30988BFF344
:100110006F8F4FF0000080F311884EF00D0E704786
:100120000000000006480068006880F3088862B696
:1001300061B6BFF34F8FBFF36F8F00DF00BF00BF0B
:1001400008ED00E0EFF30980BFF36F8F0F4B1A68E3
:1001500020E9F00F106008B54FF0BF0080F3118860
:10016000BFF34F8FBFF36F8F04F05BFD4FF00000C4
:1001700080F31188BDE8084019680868B0E8F00FFE
:1001800080F30988BFF36F8F704700BFA000002085
:10019000EFF305807047000008B54FF47070ADF8BC
:1001A000000010208DF8030003208DF8020069463E
:1001B000224802F0B6FB08BD70B505460E4604F0B5
:1001C00049FC042D16D24020A84084B246B94FF60F
:1001D000FF7044401A48008820401949088004E014
:1001E000174800882043164908801548018813489D
:1001F00002F049FC04F062FB70BD70B5054604F0E6
:1002000029FC042D16D24020A84084B20C48008856
:10021000204028B10A480088A0430949088004E02A
:10022000074800882043064908800548018803489C
:1002300002F029FC04F042FB70BD000000100140F8
:100240000000002070B588B005460C460022012150
:10025000204603F06DFE7049086000220121601CF9
:1002600003F066FE6D4908606B480068002858D0AE
:1002700008460068002854D0012144F2040002F02E
:100280009EFF4FF48060ADF8000004208DF803005D
:100290006946634802F045FB4FF40070ADF800007A
:1002A00003208DF8020018208DF8030069465C4891
:1002B00002F037FB02950020ADF80C00ADF80E00FF
:1002C000ADF81000ADF812000C20ADF814000020BD
:1002D000ADF81600ADF818004FF40070ADF81A0034
:1002E0000020ADF81C0002A94E4802F065F9012279
:1002F00040F225514B4802F0CFF925208DF804003B
:100300000F208DF8050000208DF8060001208DF8E3
:10031000070001A802F06DFC0121424802F0B0F98B
:1003200000E00026304608B070BD70B506460C46A9
:10033000154600232A4621463748006803F0C4FFCB
:1003400008B1012070BD0020FCE7F7B50646154650
:1003500000232A4601A93148006803F088FE0128DD
:1003600007D10124012240F227712E4802F094F9AE
:1003700000E000242046FEBD2DE9F04106460D4672
:1003800017462C4606E094F9001000223046FFF78D
:10039000DCFF641C20780028F5D1BDE8F0817047AF
:1003A0001CB50020019040F227711E4802F034FA7B
:1003B000012813D101AA69461848006804F020F802
:1003C000012805D19DF80010164802F0C1F905E09A
:1003D000002240F22771134802F05EF940F22551E5
:1003E000104802F019FA01280BD10E4802F0B4F9B6
:1003F000C0B20090002301AA69460748006803F0D4
:10040000C0FE019838B14FF0805007490860BFF333
:100410004F8FBFF36F8F1CBD040000200800002029
:10042000000801400038014004ED00E03EB5012124
:10043000084602F0D1FE0121022002F0CDFE4FF06D
:10044000804003F0A9F8324803F0A6F801A803F0B1
:100450007EFA4FF46164ADF804400020ADF8060068
:10046000ADF80800ADF80A0001A9A00603F0BEF837
:100470000121880703F06FFB4FF6FF70ADF8040011
:1004800001A9234803F0B2F80121214803F063FBDE
:100490001C208DF8000000208DF802008DF801006E
:1004A00001208DF80300684602F0A3FB01221146EB
:1004B000900703F075FA0121880703F065FA01211E
:1004C000134803F061FA3EBD70B511482430058829
:1004D0001048008805280FDB0F480088281A84B2CE
:1004E0000E48008884420CDD0C4804800088A0F58A
:1004F00061600B49088004E006480088401C0549FB
:100500000880054805800121880703F073FC70BD51
:1005100000040040100000200E0000201200002007
:100520000C00002008B54FF48070ADF800000320E7
:100530008DF8020010208DF803006946A04802F0F3
:10054000F0F9012211029E4802F098FA01F0B3FA84
:100550004FF6FF7001F014FC40F21F5001F00AFC4E
:1005600001F0BCFC08BD1CB5FFF7DCFF954801F0AD
:100570007BFE00BF00BF00235A1E694692480068F8
:1005800003F0A2FE0128F6D1019805F0E1F8F1E7A9
:100590000EB504F0DDFC02908C48019000BF41F2E2
:1005A000883102A804F05CFA00F02AFD012802D08C
:1005B00087A0019033E000F056FF012802D089A007
:1005C00001902CE000F012FC012802D08BA00190D9
:1005D00025E001F0BDF9012802D08DA001901EE0B8
:1005E00001F073F8012802D08EA0019017E001F00D
:1005F00022F9012802D090A0019010E000F0EFFF56
:10060000012802D090A0019009E09448008800EBF6
:10061000800101EBC00292A16C4805F0A9F800230B
:100620005A1E69466848006803F021FDB7E710B517
:1006300002F088FC4FF4803002F0ABFC00BF3120A8
:1006400002F0FBFD0028FAD0022089490860002052
:1006500002F0ECFC002002F0FBFC4FF4806002F0A2
:10066000EEFC4FF4E0114FF4803002F0C2FC0120A8
:1006700002F0CBFC00BF392002F0DFFD0028FAD0E9
:10068000022002F0C5FC00BF02F0CBFC0828FBD121
:1006900001217D2002F093FD0121880302F09CFDE1
:1006A0000021084602F056FB4FF4407002F09BFA1E
:1006B000042002F00FFFFFF76FFD10BD1CB5FFF720
:1006C000B6FF00220821032003F032FC3E490860F7
:1006D000022000F0F9FB00F0A6FE012000F023FB51
:1006E000022001F016F9002001F091F8012001F03C
:1006F00051F803224FF4E131012000F052FF0020B5
:1007000003210346B222CDE900105AA15B4803F051
:10071000BDFF002000900346802259A10190594856
:1007200003F0B4FF032000F0BCFFFFF77FFE04F0EE
:10073000DBFB00201CBD70B504460D465248008806
:1007400020B95248007808B901F0C8FB0A2C21D022
:10075000E2B24F4801884D48007801F086FB4C48D2
:10076000008810384A49088047480088401C46499C
:10077000088008460088142818D1444800781830AA
:100780004249087040F23F104149088000203E492C
:1007900008800BE03D48007818303C49087040F272
:1007A0003F103B49088000203749088037480078CF
:1007B000F02802DB002035490870204670BD00009B
:1007C000000801401659000814000020FC00002019
:1007D0004552524F5220494E20424C4F434B2051DC
:1007E0000A0000004552524F5220494E20424C4FC1
:1007F000434B2054494D450A000000004552524FDA
:100800005220494E2053454D4150484F52450A0011
:100810004552524F5220494E20504F4C4C20510AC5
:10082000000000004552524F5220494E204352458D
:100830004154450A000000004552524F5220494E93
:10084000204D4154480A00004552524F5220494E13
:1008500020434F4D20544553540A00000C00002003
:1008600050415353205B25756E735D0A00000000F4
:1008700000200240436865636B000000910500089A
:100880004C43440067050008180000201C000020AD
:100890001A00002010B5044622461021F04802F04C
:1008A000EDF810BD00B587B0012141F2040002F05F
:1008B00086FCE020ADF8040003208DF80600182027
:1008C0008DF8070001A9E64802F02BF81020ADF8DA
:1008D000040003208DF8060010208DF8070001A900
:1008E000DF4802F01EF80120FFF7D4FF0020ADF82A
:1008F00008004FF48270ADF80A000020ADF80C003B
:100900000220ADF80E000120ADF810004002ADF855
:1009100012000820ADF814000020ADF816000720E2
:10092000ADF8180002A9CF4802F0E9FC0121CD483A
:1009300002F00AFD07B000BD10B5044600BF022159
:10094000C84802F07AFD0028F9D02146C54802F0D7
:1009500020FD00BF0121C34802F06FFD0028F9D03F
:10096000C04802F018FDC0B210BD10B50024002030
:10097000FFF790FF0520FFF7DFFF00BFA520FFF77F
:10098000DBFF044604F001000028F7D10120FFF747
:1009900081FF10BD10B50020FFF77CFF0620FFF798
:1009A000CBFF0120FFF776FF10BD10B50446FFF71F
:1009B000F1FF0020FFF76EFFD820FFF7BDFFC4F363
:1009C0000740FFF7B9FFC4F30720FFF7B5FFE0B218
:1009D000FFF7B2FF0120FFF75DFFFFF7C6FF10BD75
:1009E00010B5FFF7D7FF0020FFF754FFC720FFF730
:1009F000A3FF0120FFF74EFFFFF7B7FF10BD70B553
:100A000005460C461646FFF7C5FF0020FFF742FFDC
:100A10000220FFF791FFC4F30740FFF78DFFC4F3F7
:100A20000720FFF789FFE0B2FFF786FF03E0287891
:100A3000FFF782FF6D1C301EA6F101018EB2F6D1C8
:100A40000120FFF727FFFFF790FF70BD2DE9F05F52
:100A500007460E4614464FF00008C146C246002520
:100A6000AB4606F0FF0ACAF10000C5B22046E11706
:100A700004EB1161C1F30728E11704EB11610912BE
:100A8000A4EB012101F0FF09BAF1000F20D1B8F168
:100A9000000F05D1224631463846FFF7B0FF64E02B
:100AA00009E04FF4807231463846FFF7A8FF06F59B
:100AB000807607F58077B8F10000A8F1010101F018
:100AC000FF08EED14A4631463846FFF798FF4CE022
:100AD000B8F1000F18D1A94510DDA9EB050000F011
:100AE000FF0B2A4631463846FFF789FF2E442F4434
:100AF0005A4631463846FFF782FF36E022463146F5
:100B00003846FFF77CFF30E0601B84B22046E117D7
:100B100004EB1161C1F30728E11704EB116109121D
:100B2000A4EB012101F0FF092A4631463846FFF7C0
:100B300066FF2E442F4409E04FF480723146384658
:100B4000FFF75DFF06F5807607F58077B8F10000C6
:100B5000A8F1010101F0FF08EED1B9F1000F04D0B6
:100B60004A4631463846FFF74AFFBDE8F09F70B568
:100B700005460C4616460020FFF78CFE0320FFF7C3
:100B8000DBFEC4F30740FFF7D7FEC4F30720FFF7EF
:100B9000D3FEE0B2FFF7D0FE04E0A520FFF7CCFEC5
:100BA00028706D1C301EA6F101018EB2F5D1012016
:100BB000FFF770FE70BD2DE9F041002400250026EE
:100BC00000270020FFF766FE9F20FFF7B5FEA52057
:100BD000FFF7B2FE0546A520FFF7AEFE0646A520AC
:100BE000FFF7AAFE07460120FFF754FE280440EA5B
:100BF000062040EA07042046BDE8F08110B504460F
:100C00000020FFF747FE0320FFF796FEC4F30740DE
:100C1000FFF792FEC4F30720FFF78EFEE0B2FFF766
:100C20008BFE10BD10B5A520FFF786FE10BD10B5D8
:100C3000044600BF02210B4802F0FFFB0028F9D058
:100C40002146084802F0A5FB00BF0121054802F03B
:100C5000F4FB0028F9D0034802F09DFB10BD000012
:100C6000000801400030014008B505464FF000097A
:100C700004F065FC6848B0F900800088401C00B2B0
:100C80006549088004F06AFC2C466768A06818B1C2
:100C900040F6FF70009001E0FF20009000BF0023AD
:100CA0001946A268206803F00FFB01282FD138688D
:100CB0000099884201D04FF00109002606E03E600D
:100CC0003868B04201D04FF00109761C0098864286
:100CD000F5D900231A461946206803F0C8F908B967
:100CE0004FF00109B9F1000F0AD1B8F1040F07DA8A
:100CF0004A4830F81800401C00B2484921F8180052
:100D0000A16801EB8101480003F0DFFEC7E7A0689E
:100D10000028C4D14FF0805041490860BFF34F8F85
:100D2000BFF36F8FBBE72DE9FC41064664270C201B
:100D300004F057FC0546002D27D003220021012096
:100D400003F0F6F828602868F8B100231A4619461F
:100D5000286803F08CF9042004F043FC6860FF204D
:100D6000696808600020A86000902B4680222DA1B1
:100D700001902E4803F08AFC002000902B46802230
:100D80002BA10190294803F081FC0C2004F029FCE0
:100D900004464CB303220021012003F0C9F820606F
:100DA000206808B300231A461946206803F05FF94B
:100DB000042004F016FC606040F6FF706168086073
:100DC0006420A0600020234680221BA1CDE90060A2
:100DD000164803F05BFC00202346802218A1CDE9D1
:100DE0000060124803F052FCBDE8FC8101200021A4
:100DF0000FE0154A32F91120084B33F911309A42AD
:100E000000D10020054A32F811200F4B23F81120A1
:100E1000491C0429EDDB7047260000201E0000203D
:100E200004ED00E0506F6C53454D3100690C000833
:100E3000506F6C53454D3200426C6B53454D310041
:100E4000426C6B53454D32002800002008B5054622
:100E5000002600272C4600BF00236946D4E9000283
:100E600003F032FA0128F7D1BDF80000B04203D0F8
:100E7000BDF800600127EFE72FB9A0680088401C8B
:100E800000B2A1680880701C86B2E5E708B5054687
:100E90000020009000262C4600BF00236946D4E9BC
:100EA000000203F0E4F8012801D00126F5E72EB98D
:100EB000A0680088401C00B2A1680880BDF800004E
:100EC000401C80B20090E8E72DE9F04F85B08246E3
:100ED0004FF0010B052004904FF47A70039000202E
:100EE00002900C2004F07DFB044600220221012028
:100EF00003F01EF820604FF47A7060605348A060E1
:100F00000C2004F06EFB07462068386000207860F3
:100F10004F48B8600020234680224EA1CDE900A0B2
:100F20004E4803F0B3FB002000903B4680224CA1CA
:100F300001904D4803F0AAFB0C2004F052FB05463B
:100F400000220221012002F0F3FF286000206860E7
:100F50003F48801CA8600C2004F043FB80462868B2
:100F6000C8F800004FF47A70C8F804003748801CB5
:100F7000C8F80800002000902B4680223BA1019079
:100F8000364803F083FB00204346802239A1CDE997
:100F900000A0354803F07AFB0C2004F022FB064643
:100FA00000220221052002F0C3FF30604FF47A7066
:100FB00070602748001DB0600C2004F012FB8146D1
:100FC0003068C9F800004FF47A70C9F804001F486F
:100FD000001DC9F80800002000903346802227A198
:100FE0000190214803F052FB002000904B468022E4
:100FF00024A10190194803F049FB05B0BDE8F08F2A
:10100000012000211EE0114A32F911201F4B33F953
:1010100011309A4200D100200C4A32F811201B4BAB
:1010200023F811200A4A32F91120194B33F91130F3
:101030009A4200D10020064A32F81120144B23F8BE
:101040001120491C0329DEDB70470000300000201E
:101050003600002051436F6E734231004D0E000880
:101060005150726F644232008D0E000851436F6E12
:10107000734233005150726F644234005150726FAA
:101080006442350051436F6E734236003C000020CD
:101090004200002008B500BF002003F0E8FD03F087
:1010A00057FF0546002000905520FD4908600023A9
:1010B000AF226946FB48006802F0D9FF10B1012059
:1010C000F949086003F044FF441BAF2C02D2012011
:1010D000F5490860BE2C02D90120F349086055206B
:1010E000EF490860002003F0C2FD03F031FF054620
:1010F0005520EB4908600023AF226946E9480068A3
:1011000003F0E2F810B10120E749086003F020FF86
:10111000441BAF2C02D20120E3490860BE2C02D947
:101120000120E14908605520DD490860DF4800687A
:10113000401CDE490860AFE72DE9F84F4FF04B083F
:101140004FF005094FF0070A0321002003F0FDFCD2
:1011500003F0FEFE0746AF2003F0B7FC03F0F8FEF5
:101160000546E81BB62802D90120CF49086003F0E4
:10117000EFFE05460095002416E0C4EB041000EBDA
:10118000800046194B21684603F06AFC03F0E0FE3C
:10119000801BB62802D90120C3490860C4480068F2
:1011A000401CC3490860641C052CE6D302210020C2
:1011B00003F0CBFCBDE8F88F1CB500BFFFF7BCFF08
:1011C0000020019023E00A20019900FA01F403F0C5
:1011D000BFFE0646002322466946B248006803F077
:1011E00073F810B10120B049086003F0B1FE851B0F
:1011F000A54202D20120AC49086004F10F008542EB
:1012000002D90120A84908600198401C019001986A
:101210000528D8DB002001900EE000231A4601A922
:10122000A048006802F023FF012802D001209E4957
:1012300008600198401C019001980528EDDB002012
:10124000019023E00A20019900FA01F403F080FEE6
:1012500006460023224601A99248006802F007FFD3
:1012600010B101209049086003F072FE851BA54271
:1012700002D201208C49086004F10F00854202D996
:101280000120894908600198401C019001980528B7
:10129000D8DB0020824908608648006803F053FDCF
:1012A00002E0142003F011FC7D4800685528F8D1B5
:1012B000142003F00AFC002079490860019032E014
:1012C00000231A4669467748006802F0FDFF0128AE
:1012D00002D001207449086000231A4601A9714810
:1012E000006802F0C4FE012802D001206E490860A7
:1012F0006B480068552802D101206B490860042121
:101300006C48006803F021FC65480068552802D14C
:1013100001206549086001216648006803F015FC5A
:101320000198401C019001980528C9DB02E01420B7
:1013300003F0CBFB5A4800685528F8D1142003F07D
:10134000C4FB00205649086001900EE000231A46B5
:1013500069465448006802F0B7FF012802D0012016
:10136000514908600198401C019001980528EDDB67
:101370005048006803F0E7FC02E0142003F0A5FBEE
:10138000474800685528F8D1142003F09EFB002040
:1013900043490860019032E000231A4601A9414800
:1013A000006802F064FE012802D001203E49086076
:1013B00000231A4669463B48006802F085FF012871
:1013C00002D001203849086035480068552802D10C
:1013D00001203549086004213648006803F0B5FB58
:1013E0002F480068552802D101202F4908600121AB
:1013F0003048006803F0A9FB0198401C0190019857
:101400000528C9DB02E0142003F05FFB24480068D4
:101410005528F8D1142003F058FB25480068401CDB
:1014200023490860CAE61CB500220421052002F009
:101430007FFD1C4908600846006898B10020022121
:1014400003468022CDE900101BA11D4803F01EF9C0
:101450001848012100238022CDE9001019A11B4862
:1014600003F014F91CBD012011490968184A1268DB
:10147000914200D100200D490968164A1268914234
:1014800000D1002008490968012900D1002007493E
:101490000968104A1160064909680D4A11607047D1
:1014A0005C0000204800002058000020540000206C
:1014B000500000204C00002042546573743100003D
:1014C000B911000842546573743200009510000889
:1014D000600000206400002008B50026002500BF41
:1014E000412415E04FF6FF72694642480068FEF756
:1014F0001CFF58B19DF90000A04205D13E4800688C
:10150000401CFEF77AFE01E0012603E0601C44B2B5
:10151000582CE7DD00BF002137480068401CFEF76B
:101520004BFE012E0ED106E04FF6FF7269463148A0
:101530000068FEF7FAFE9DF800005828F4D16D1CF3
:101540000026CDE7022DCBDA2C480068401C2B4941
:101550000860C5E700BF41240DE0002261B22548C4
:101560000068FEF7F2FE012803D123480068FEF769
:1015700044FE601CC4B2582CEFDD00211E480068F8
:10158000FEF71AFE03F0E4FCC51C9620B5FBF0F153
:1015900000FB1155322D00D23225284603F095FA72
:1015A000D9E77CB504460D46164613480660182157
:1015B0002846FEF747FE0021601E0B468022CDE93B
:1015C00000010FA1104803F061F8002003468022BB
:1015D0000EA1CDE900400F4803F058F87CBD074943
:1015E000096809B9002000E001200021034A1160C8
:1015F00070470000680000206C0000207000002090
:10160000434F4D547800000055150008434F4D528C
:1016100078000000D91400081CB5054600BF0DB1C4
:101620002C6800E0002400BF0220019059200090A7
:10163000DDE9000148430090C82003F046FA002C81
:10164000F2D0002003F041FA204603F06DF80020AC
:1016500003F06AF8E8E71CB500BF002003F04CFA7D
:10166000044600BF4FF47A7003F02FFA0020294996
:10167000086008460023802227A1CDE900402848C1
:1016800003F004F80020234B802226A1CDE900407E
:10169000234802F0FBFF25480088401C23490880AE
:1016A000E0E71CB5044600200346BC2220A1CDE99A
:1016B0000040214802F0EAFF03F051FC1F49086096
:1016C00008460068401C08601CBD10B501241C4879
:1016D000008816490988884201D1002403E0134894
:1016E00000881749088003F03AFC1649086008464C
:1016F000006812490968884201D2002407E01148B5
:1017000000680E490968401A032800D900242046C1
:1017100010BD00007C00002053554943494431006E
:1017200019160008535549434944320074000020FB
:1017300043524541544F520057160008780000208C
:10174000800000208400002008B503F0F8FE1A484D
:1017500005680068401C1849086003F0FFFE40F26D
:101760004D1105FB01F000F24D1400BF640803F0B9
:10177000EFFB009000BF2146684603F071F9284650
:10178000FEF73BFD2146684603F06AF92846FEF75E
:1017900034FDF0E77CB50446002509E0002003464F
:1017A000802206A1CDE90040064802F06FFF6D1CC3
:1017B000032DF3DB7CBD0000880000204C454478FD
:1017C000000000004917000808B504460025264619
:1017D00000BF7B200090009800F5653047300090F6
:1017E0000098A0EB800000900721009890FBF1F09A
:1017F000009019490098884200D00125002DE8D1B9
:1018000003F09DFE0120306003F0A8FEE1E77CB507
:10181000054600240CE00020CDE900500F4800EB05
:10182000840380220EA1104802F030FF601C04B235
:10183000012CF0DB7CBD012000210AE0074A52F8B0
:10184000212002B900200022044B43F821204A1C29
:1018500011B20129F2DB70471B77FEFF8C000020DC
:10186000496E744D61746800C917000808B50446D4
:1018700000200090002600BF002519E000231A4632
:101880006946206802F0F3FB012801D001260EE032
:1018900046B903F054FE36480068401C34490860DD
:1018A00003F05CFEBDF80000401C80B200906D1C8F
:1018B000032DE3DBC82003F008F9DDE708B5044693
:1018C0000025002600BF1BE000231A466946206859
:1018D00002F0FAFC012813D1BDF80000A84203D0A1
:1018E0000126BDF8005009E046B903F028FE214862
:1018F0000068401C1F49086003F030FE681C85B278
:10190000206802F0E3FD0028DED1B42003F0DDF80A
:10191000D9E71CB50446002202210A2002F008FB88
:10192000154908600846006888B100200B468022EF
:1019300012A1CDE90040134802F0A8FE00200E4B92
:10194000802211A1CDE90040114802F09FFE1CBD8C
:101950000849096811B10649096809B9002000E081
:1019600001200021034A1160014A11607047000004
:1019700094000020900000209800002051436F6EDA
:10198000734E4200BD1800085150726F644E420001
:101990006D18000805480047FEE7FEE7FEE7FEE792
:1019A000FEE7FEE7FEE7FEE7FEE7FEE7ED000008E4
:1019B00070B504460D46164632462946204601F0CB
:1019C0005DF870BD70B504460D46002600224FF448
:1019D0000041F748FFF7ECFF00228021F448FFF7B1
:1019E000E7FF00220421F348FFF7E2FF26022E431F
:1019F0003146F14801F0CDFC00BF0221EE4801F074
:101A00001CFD0028F9D001220421EA48FFF7D0FF8D
:101A100070BD00B587B00121082001F0D0FB012185
:101A2000880301F0D9FB4FF47040ADF804000320A7
:101A30008DF8060018208DF8070001A9DD4800F098
:101A400070FF0020ADF808004FF48270ADF80A0076
:101A50004FF40060ADF80C000020ADF80E00ADF8BA
:101A600010004FF40070ADF812000020ADF8140023
:101A7000ADF8160002A9D04801F041FC0121CE4882
:101A800001F062FC07B000BD08B50420ADF800000D
:101A900003208DF8020010208DF803006946C54828
:101AA00000F03FFF48F28000ADF800006946C048F2
:101AB00000F037FF08BD10B5FFF7E6FFFFF7A9FFFD
:101AC00010210120FFF77EFFA0210020FFF77AFF01
:101AD00001210320FFF776FF0A2002F0F6FF002124
:101AE0000320FFF76FFF04212B20FFF76BFF182166
:101AF0002820FFF767FF05211A20FFF763FF052164
:101B00002520FFF75FFF00211920FFF75BFF7321FE
:101B10001C20FFF757FF74212420FFF753FF0121FA
:101B20001E20FFF74FFFC1211820FFF74BFF0A20AF
:101B300002F0CBFFE1211820FFF744FFF12118202C
:101B4000FFF740FF3C2002F0C0FFF5211820FFF70F
:101B500039FF3C2002F0B9FF09211B20FFF732FFBB
:101B60000A2002F0B2FF11211F20FFF72BFF0E21E8
:101B70002020FFF727FF81211E20FFF723FF0A20E7
:101B800002F0A3FF00219D20FFF71CFF0021C020D1
:101B9000FFF718FF00210E20FFF714FF00210F2090
:101BA000FFF710FF00211020FFF70CFF002111208C
:101BB000FFF708FF00211220FFF704FF0021132088
:101BC000FFF700FF00211420FFF7FCFE0021152085
:101BD000FFF7F8FE00211620FFF7F4FE0021172082
:101BE000FFF7F0FE01213420FFF7ECFE0021352045
:101BF000FFF7E8FE00214B20FFF7E4FE00214C2018
:101C0000FFF7E0FE00214E20FFF7DCFE00214F2011
:101C1000FFF7D8FE00215020FFF7D4FE00213C2022
:101C2000FFF7D0FE00213D20FFF7CCFE01213E2032
:101C3000FFF7C8FE3F210846FFF7C4FE02214020FF
:101C4000FFF7C0FE02214120FFF7BCFE0021422029
:101C5000FFF7B8FE00214320FFF7B4FE0021442027
:101C6000FFF7B0FE00214520FFF7ACFEEF21462034
:101C7000FFF7A8FE00214720FFF7A4FE002148201F
:101C8000FFF7A0FE01214920FFF79CFE3F214A20DB
:101C9000FFF798FE08211D20FFF794FE0021862003
:101CA000FFF790FE30218720FFF78CFE022188206D
:101CB000FFF788FE05218920FFF784FE01218D2092
:101CC000FFF780FE20218B20FFF77CFE01213320CF
:101CD000FFF778FE01213720FFF774FE0021762000
:101CE000FFF770FE10218F20FFF76CFE6721902018
:101CF000FFF768FE07219120FFF764FE652192201F
:101D0000FFF760FE07219320FFF75CFE012194207E
:101D1000FFF758FE76219520FFF754FE56219620B6
:101D2000FFF750FE00219720FFF74CFE0621982078
:101D3000FFF748FE03219920FFF744FE00219A2077
:101D4000FFF740FE50210120FFF73CFE0421052053
:101D5000FFF738FE80210020FFF734FE01213B20F1
:101D6000FFF730FE282002F0B0FE20210020FFF710
:101D700029FE10BD01B5BDF800001049088008BD5E
:101D800001B5BDF800000E49088008BD70B50546D4
:101D90000C4629464220FFF715FEC4F300214320DC
:101DA000FFF710FEE1B24420FFF70CFE70BD00000B
:101DB00000140140000C0140003800409C0000204D
:101DC0009E00002010B5044600224FF40041FE485A
:101DD000FFF7EEFD01228021FB48FFF7E9FD00221D
:101DE0000421FA48FFF7E4FD2146F94801F0D1FA51
:101DF00000BF0221F64801F020FB0028F9D00122A3
:101E00000421F248FFF7D4FD10BD2DE9F047064646
:101E10008946174600240025A046B046494640465C
:101E2000FFF7B4FF00BF1CE000250FE037F81400F7
:101E30000121A940084020B9E6480088FFF7C2FF09
:101E400003E0E5480088FFF7BDFF6D1C102DEDD3C2
:101E500008F1010000F0FF0849464046FFF796FFF1
:101E6000641C182CE0D3BDE8F08770B505460E461B
:101E70001446A4F12000C4B204EB4400D74901EB9E
:101E8000001231462846FFF7C0FF70BD2DE9F04132
:101E900007460C46002540F23F1609E022783146FD
:101EA0003846FFF7E2FFA6F1100086B2641C6D1CF5
:101EB000207808B1012000E00020142D01D201217A
:101EC00000E0002108400028E8D1BDE8F08110B50D
:101ED0000446C3A12046FFF7D9FF10BD10B500246A
:101EE00040F23F110020FFF751FF00BF04E04FF622
:101EF000FF70FFF767FF641CB4F5963FF7D310BD82
:101F00000146002000BF01E0491C401C0A78002A5D
:101F1000FAD170472DE9F05F80460C464FF000097A
:101F2000CA46CB46002540F23F1600272046FFF761
:101F3000E7FF0746C82F0BD931464046FFF726FF7B
:101F40004046FFF7C4FFACA14046FFF79FFF43E0C8
:101F500040F23F114046FFF719FF4046FFF7B7FF39
:101F600036E0BBF1140F21D12078202801D1641C68
:101F700011E04FF0000909E01FFA8AF120224046E3
:101F8000FFF773FFAAF1100A09F10109A945F3D37C
:101F9000681E241A074408F1180000F0FF084046A4
:101FA000FFF795FF40F23F164FF0000B22783146C5
:101FB0004046FFF75AFF0BF1010BA6F1100086B265
:101FC000641C6D1C2078202802D10025A6F1100A7F
:101FD000381EA7F10107C4D1BDE8F09F80460C462A
:101FE0000027B946002540F23F162046FFF788FF3C
:101FF000814626E009E0227831464046FFF735FF6A
:10200000A6F1100086B2641C7F1C207808B1012064
:1020100000E00020142F01D2012100E0002108403F
:102020000028E8D1642002F050FD0027A4EB090449
:102030006D1C102E00DA002540F23F10A0EB0510B9
:1020400086B2D7E72DE9F04105460C4617461E46F5
:10205000D0210120FFF7B6FC14210520FFF7B2FCC8
:1020600029464520FFF7AEFCE819401CC1B24620C6
:10207000FFF7A8FCC4F300214720FFF7A3FCE1B25F
:102080004820FFF79FFCA019401CC0F30021492005
:10209000FFF798FCA019401CC1B24A20FFF792FC40
:1020A00021462846FFF772FEBDE8F0812DE9F04198
:1020B0000646884615461F46002441463046FFF72F
:1020C00065FE4FB900BF04E043480088FFF77AFE81
:1020D000641CAC42F8D30EE000240AE03E480088BD
:1020E000FFF770FE701CC6B241463046FFF74EFE49
:1020F000641CAC42F2D3BDE8F0812DE9F041054605
:102100000E4617461C460023224631462846FFF756
:10211000CDFFE919C8B2002322463146FFF7C6FFBA
:1021200001233A4631462846FFF7C0FF301B401CCA
:1021300081B201233A462846FFF7B8FFBDE8F08197
:102140002DE9F04706460F4690460320A0EB4809CC
:102150000024454683E07A1991B23219D0B2FFF7D4
:1021600015FE1D480088FFF72DFE7A1B91B232192B
:10217000D0B2FFF70BFE18480088FFF723FE7A194C
:1021800091B2321BD0B2FFF701FE13480088FFF76F
:1021900019FE7A1B91B2321BD0B2FFF7F7FD0E4841
:1021A0000088FFF70FFE3A1991B27219D0B2FFF70B
:1021B000EDFD09480088FFF705FE3A1B91B2721940
:1021C000D0B2FFF7E3FD23E000140140000C014012
:1021D000003800409E0000209C000020D67E0008B1
:1021E00020202020202020202020202020202020EF
:1021F0002020202000000000202020537472696EEF
:102200006720746F6F206C6F6E67202000000000E5
:10221000B1480088FFF7D6FD3A1991B2721BD0B2CF
:10222000FFF7B4FDAC480088FFF7CCFD3A1B91B234
:10223000721BD0B2FFF7AAFDA7480088FFF7C2FDC6
:10224000B9F1000F04DA062000EB8400814405E0B8
:10225000601B0A2101EB800081446D1E641CAC42AE
:102260007FF679AFBDE8F08770B5064600240025FB
:1022700040F23F110020FFF789FD00BF14E0002568
:102280000FE056F824000121A940084020B99348E6
:102290000088FFF797FD03E08F480088FFF792FD65
:1022A0006D1C202DEDD3641CB4F5166FE7D370BD03
:1022B0002DE9F04105460024D0210120FFF782FBE3
:1022C00004210520FFF77EFB40F23F11EF20FFF7CE
:1022D0005DFD2846FEF792FC0021814801F034F8AC
:1022E0004FF400617E4801F074F801217C4801F050
:1022F0002BF800BF0AE04AF2A550FEF798FC07460B
:1023000000F029F90646FFF75DFD641CB4F5963F21
:10231000F1D30120FEF7BEFA0021714801F014F854
:1023200000216F4801F055F801216D4801F00CF8CB
:10233000BDE8F08170B50446002500224FF400414D
:102340006848FFF735FB002280216648FFF730FB25
:10235000002204216448FFF72BFB00BF02216348E1
:1023600001F06BF80028F9D02146604801F011F81F
:102370000122D1035B48FFF71BFB00BF02215B4832
:1023800001F05BF80028F9D0FF21584801F001F86E
:1023900000BF0121554801F050F80028F9D05348FA
:1023A00000F0F9FF0546012204214F48FFF700FB2A
:1023B000E8B270BD10B500240122D1034948FFF7EF
:1023C000F7FA012280214748FFF7F2FA00220421A0
:1023D0004548FFF7EDFA00BF0221444801F02DF80F
:1023E0000028F9D0FF21414800F0D3FF00BF0121B0
:1023F0003E4801F022F80028F9D03C4800F0CBFF1D
:102400000446012204213848FFF7D2FA204610BDC5
:1024100010B573211C20FFF7D5FA74212420FFF793
:10242000D1FA01211E20FFF7CDFAC1211820FFF7B4
:10243000C9FA0A2002F049FBE1211820FFF7C2FA8D
:10244000F1211820FFF7BEFA3C2002F03EFBF521F7
:102450001820FFF7B7FA3C2002F037FB09211B20B8
:10246000FFF7B0FA0A2002F030FB11211F20FFF71E
:10247000A9FA0E212020FFF7A5FA81211E20FFF7DF
:10248000A1FA0A2002F021FB10BD10B55021012055
:10249000FFF798FA04210520FFF794FA8021002025
:1024A000FFF790FA01213B20FFF78CFA282002F079
:1024B0000CFB20210020FFF785FA10BD10B5A021EC
:1024C0000020FFF77FFA282002F0FFFA00213B20CE
:1024D000FFF778FA10BD00009C0000209E0000204D
:1024E0000030014000140140000C01400038004061
:1024F00030BF704720BF704740BF7047BFF36F8F3A
:102500007047BFF34F8F7047BFF35F8F704701DF96
:102510007047EFF31480704780F31488BFF36F8F18
:102520007047EFF30980704780F309887047EFF335
:102530000880704780F30888704772B6704762B6AB
:10254000704771B6704761B6704780F31188704765
:10255000EFF31280704740BA704700BA704700002E
:1025600010B50446C548204478B1B0F5806F16D048
:10257000B0F5744F1DD10121880300F03AFE00210F
:102580004FF4804000F035FE14E00121480400F0D3
:102590003DFE00214FF4003000F038FE0AE001213A
:1025A000880400F033FE00214FF4802000F02EFE5E
:1025B00000E000BF00BF10BD2DE9F04385B0064626
:1025C0000D460024A14600BF00BF348A4CF2FF0034
:1025D0000440E888E9890843298A0843698A08434E
:1025E000A98A0843044334820024B4894EF6F310C8
:1025F0000440A88829890843A98908430443B48171
:102600000024B48A4FF6FF40044068890443B48232
:1026100000BF684600F066FD9948864202D1DDF8A9
:102620000C9001E0DDF8089009EBC90000EB0910FF
:1026300029688900B0FBF1F76420B7FBF0F00401D2
:102640002009642101FB1078322000EB0810B0FB58
:10265000F1F000F00F000443348105B0BDE8F083D1
:102660004FF41651016000218180C18001814181B8
:102670000C2181810021C1810182418281827047C8
:1026800021B1828942F40052828104E082894DF6B0
:10269000FF731A4082817047F0B50346002400267C
:1026A00000250020C1F3421401F01F06012707FA9C
:1026B00006F51846012C01D10C3004E0022C01D1A2
:1026C000103000E014301AB107682F43076002E0B1
:1026D0000768AF430760F0BD1AB1838A0B4383825A
:1026E00002E0838A8B4383827047028A4FF6F0733D
:1026F0001A400282028A0A430282704782894FF29C
:10270000FF731A40828182890A438281704721B116
:10271000828942F00202828104E082894FF6FD73D1
:102720001A4082817047028A4FF6DF731A40028294
:10273000028A0A430282704721B1028A42F480422F
:10274000028204E0028A4BF6FF731A40028270474D
:10275000C1F308028280704701468888C0F30800F0
:102760007047818941F0010181817047028BD2B2AB
:102770000283028B42EA012202837047028B02F439
:102780007F420283028B0A430283704721B1828A0F
:1027900042F02002828204E0828A4FF6DF731A4000
:1027A0008282704721B1828A42F01002828204E064
:1027B000828A4FF6EF731A408282704721B1828A73
:1027C00042F00802828204E0828A4FF6F7731A40D0
:1027D00082827047828A4FF6FB731A408282828A15
:1027E0000A438282704721B1828A42F002028282C9
:1027F00004E0828A4FF6FD731A40828270470246D7
:10280000002013880B400BB1012000E0002070472E
:1028100002888A430280704770B502460B46002446
:10282000002100250020C3F3421503F01F010126FB
:1028300006FA01F1012D02D19689314006E0022D00
:1028400002D1168A314001E0968A31401C120126DD
:1028500006FA04F41688344011B10CB1012000E0EE
:10286000002070BD10B5002200230A12012404FAD2
:1028700002F304889C43048010BD000000BCFFBF2D
:102880000038014010B50446B249601A8C4220D08D
:1028900006DCB148204450B1B0F5806F34D10FE070
:1028A000B0F5806F1ED0B0F5006F2DD123E001216F
:1028B000042000F09EFC0021042000F09AFC24E09B
:1028C0000121082000F095FC0021082000F091FC77
:1028D0001BE00121102000F08CFC0021102000F0F2
:1028E00088FC12E00121202000F083FC0021202040
:1028F00000F07FFC09E00121402000F07AFC00217B
:10290000402000F076FC00E000BF00BF10BD10B515
:102910000121084600F06DFC0021012000F069FC57
:1029200010BD2DE9F04102460025002600200023BD
:102930000024002791F803C00CF00F0591F803C0A4
:102940000CF0100CBCF1000F03D091F802C04CEA5F
:10295000050591F800C0BCF1000F31D014680020CB
:102960002AE04FF0010C0CFA00F3B1F800C00CEAB9
:1029700003069E421FD183004FF00F0C0CFA03F7A1
:10298000BC4305FA03FC4CEA040491F803C0BCF113
:10299000280F05D14FF0010C0CFA00FCC2F814C04E
:1029A00091F803C0BCF1480F05D14FF0010C0CFAAF
:1029B00000FCC2F810C0401C0828D2D314600024C8
:1029C000B1F800C0BCF1FF0F34DD546800202EE0E8
:1029D00000F1080C4FF0010808FA0CF3B1F800C040
:1029E0000CEA03069E4221D183004FF00F0C0CFA33
:1029F00003F7BC4305FA03FC4CEA040491F803C056
:102A0000BCF1280F05D100F1080C08FA0CF8C2F847
:102A1000148091F803C0BCF1480F07D100F1080CF5
:102A20004FF0010808FA0CF8C2F81080401C082882
:102A3000CED35460BDE8F0814FF6FF7101800221D2
:102A400081700421C17070470246002093680B40DA
:102A50000BB1012000E0002070470146886880B279
:102A6000704702460020D3680B400BB1012000E004
:102A7000002070470146C86880B270470AB1016102
:102A800000E041617047C16070474FF480320A43F3
:102A90008261816182618269826970470246002099
:102AA0002E4B18684FF68073184040EA0210084316
:102AB0002A4B186070472A49C861704770B50B46A9
:102AC0000022002400210025244E7168C0F3034534
:102AD00082B200F40016B6F5001F02D121F0E061C9
:102AE0000AE000F48016B6F5801F04D1032606FA2A
:102AF00005F4A14300E0914343B100F40016B6F59C
:102B0000001F02D141EA024100E01143134E7160FF
:102B100070BD30B500228B071C0F0F2303FA04F29F
:102B20000E4B08338C1053F8243093430B4C08346D
:102B30008D1044F8253023468C1053F824308C0730
:102B4000240F00FA04F42343044C08348D1044F895
:102B5000253030BD0010014000F8FEBF00000140EC
:102B6000000020420020411EEF4A11604A0DEE494C
:102B70008039C1F88420411E4FF0E022C2F8801253
:102B80004A0DEA490A6000BF04E00022E84941F822
:102B90002020401C0B28F8D3704700204FF0206104
:102BA000E44A11600021121D1160E349121D1160F9
:102BB0000021121D1160121D116000BF05E00022EE
:102BC000DC49143141F82020401C0328F7D30021B0
:102BD000D84A20321160491E121D1160121D116069
:102BE000121D11607047D4490143D24A0832116066
:102BF0007047F0B500210022002300250F24C6787D
:102C0000002E35D0CB4E0836366806F4E066C6F5A1
:102C1000E066310AC1F10405CC40467806FA05F1B8
:102C200086782640314309010678B607F60EB14092
:102C3000BF4E0778BF1056F827200678B607F70E64
:102C4000FF2606FA07F39A4319400A43B84E07785D
:102C5000BF1046F82720067806F01F070126BE4061
:102C600007787F11BF0007F1E027C7F800610BE08C
:102C7000067806F01F070126BE40AB4F90F800C053
:102C80004FEA6C1C47F82C60F0BD002101704170C8
:102C90008170C170704710B5FFF74FFC10BD10B5C3
:102CA000FFF74DFC10BD10B5FFF74BFC10BD10B584
:102CB000FFF749FC10BD10B504462001FFF745FCA5
:102CC00010BD10B5FFF744FC10BD9A480068C0F372
:102CD0000930704710B501460020002201F01F04A2
:102CE000012303FA04F2904B80334C1153F8243043
:102CF0001340934201D1012000E0002010BD8F4914
:102D00000860704700F01F0201219140874A121F9E
:102D1000431142F82310704786480068C0F3090049
:102D2000704710B501460020002201F01F04012366
:102D300003FA04F27D4B7C334C1153F824301340DA
:102D4000934201D1012000E0002010BD7948001F0E
:102D5000006870477A4A02EAC112764B1B1D1A605E
:102D60001A46126802431A6070477348001D714981
:102D70000831086070477048401C6E49083108608F
:102D8000704739B16B4A0C3212680243694B0C33FD
:102D90001A6006E0674A0C3212688243654B0C33B6
:102DA0001A60704710B5002200F01F04012303FAD7
:102DB00004F239B15F4B20331B6813435D4C203460
:102DC000236006E05B4B20331B689343594C20344F
:102DD000236010BDF0B503460C4615460020FF22C7
:102DE00000260021534F08373F6807F4E067C7F516
:102DF000E067390AC1F10400CA4004FA00F105EAAB
:102E000002073943090103F0C0008009C3F301221E
:102E1000D700B9404FEAC20CFF2707FA0CF6454F1E
:102E2000143757F82070B743DFF808C10CF1140CC1
:102E30004CF82070674657F820700F434CF820700C
:102E4000F0BD10B50246002000230021910A01F0D8
:102E50000F01012404FA01F1364C2034246804EAFD
:102E600001038B4201D1012000E0002010BD0021B0
:102E700000F01F012F4A126801238B401A432D4B8B
:102E80001A60704710B5002100F01F01294A12682E
:102E90004B1E01249C402243264B1A6010BD10B5E6
:102EA0000246002000230021C2F38331012404FAEA
:102EB00001F1204C2034246804EA01038B4201D143
:102EC000012000E0002010BD30B5014600200022A6
:102ED0000023C1F38142C1F301531AB9154C2834C0
:102EE000206811E0012A0CD1124C24342468DD0042
:102EF00024FA05F0022B02D000F00F0004E0C0B26B
:102F000002E00C4C2C34206830BD01460020002229
:102F1000C1F380521AB9074B3033186802E0054BF1
:102F2000343318687047000080E100E084E200E07C
:102F300000E400E004ED00E00000FA0500EF00E02E
:102F400080FFFF1F0020D549C86008611420486138
:102F500000208861C8610846006840F001000860F0
:102F600008464068CE490840CC4948600846006899
:102F7000CC490840C94908600846006820F4802010
:102F800008600846406820F4FE0048600020886021
:102F90007047C249096821F48031C04A1160114666
:102FA000096821F480211160B0F5803F03D0B0F5AD
:102FB000802F0ED106E0B949096841F48031B74A43
:102FC000116007E0B549096841F4A021B34A1160D6
:102FD00000E000BF00BF704701460020AF4A106804
:102FE00020F0F80040EAC10010607047AE49086068
:102FF000704702460020A94B586820F47C1042EA32
:1030000001031843A54B58607047A74908667047ED
:1030100001460020A14A506820F003000843506098
:1030200070479E48406800F00C0070470146002041
:103030009A4A506820F0F0000843506070470146FB
:103040000020964A506820F4E060084350607047C2
:1030500001460020914A506820F4605040EAC100C7
:103060005060704729B18D4A527A02438B4B5A7295
:1030700004E08A4A527A8243884B5A7270478A49DE
:10308000D8310860704701460020844A506820F417
:1030900040400843506070470021804A2032117040
:1030A0007E4A82F82010012802D004280AD104E0C8
:1030B00001217A4A2032117005E00521774A203239
:1030C000117000E000BF00BF70477849086070478A
:1030D0007249096A0143714A116270477349443960
:1030E0000860704730B500210022002400236B4D9A
:1030F0006D6805F00C0121B1042905D0082923D100
:1031000005E06B4D056022E0694D05601FE0634DF1
:103110006D6805F47012022505EB92425F4D6D68F3
:1031200005F480341CB9634D554305600BE05B4DDD
:103130006D6805F400351DB15E4D5543056002E034
:103140005B4D5543056002E0594D056000BF00BF6F
:10315000524D6D6805F0F0010909574D6B5C05682B
:10316000DD4045604D4D6D6805F4E061090A524D42
:103170006B5C4568DD408560484D6D6805F46051C5
:10318000C90A4D4D6B5C4568DD40C560434D6D68B7
:1031900005F44041890B494D6B5CC568B5FBF3F5FF
:1031A000056130BD29B13D4A526902433B4B5A612A
:1031B00004E03A4A52698243384B5A61704729B158
:1031C000364A92690243354B9A6104E0334A926968
:1031D0008243324B9A61704729B1304AD269024327
:1031E0002E4BDA6104E02D4AD26982432B4BDA611F
:1031F000704729B1294AD2680243284BDA6004E0BB
:10320000264AD2688243254BDA60704729B1234AA7
:1032100012690243214B1A6104E0204A1269824379
:103220001E4B1A61704721494039086070471E499A
:10323000C86470471949C871704710B5014600222B
:10324000002300204A11012A02D1144C236806E011
:10325000022A02D1114C236A01E0104C636A01F08A
:103260001F02012494401C400CB1012000E000200A
:1032700010BD0A48406A40F08070084948627047B3
:1032800001460020054A92680A400AB1012000E088
:10329000002070470149887270470000001002400A
:1032A0000000FFF8FFFFF6FE0000424280044242A9
:1032B00000127A0000093D00A6900008B6900008B0
:1032C00010B504468248204460B1B0F5784F13D160
:1032D00001210803FFF78DFF00214FF48050FFF715
:1032E00088FF0AE001218803FFF790FF00214FF4D7
:1032F0008040FFF78BFF00E000BF00BF10BD10B59E
:103300000022028802F441520B884C8823438C88A7
:103310002343CC8823430C8923434C8923438C8942
:103320002343CC8923431A4302800B8A038210BDB6
:103330000021018041808180C180018141818181A2
:10334000C18107210182704721B1028842F0400209
:10335000028004E002884FF6BF731A400280704773
:1033600030B5002400230C110125A540ABB21AB1E1
:1033700085881D43858002E085889D43858030BD1A
:103380001AB183880B43838002E083888B43838058
:103390007047818170470146888970474FF6FF6208
:1033A000914204D0028842F48072028004E00288D4
:1033B0004FF6FF631A400280704721B1828842F0C5
:1033C0000402828004E082884FF6FB731A408280F8
:1033D000704721B1028842F40062028002E0028854
:1033E000002202807047018841F4805101807047BB
:1033F00021B1028842F40052028004E002884DF6B6
:10340000FF731A400280704702460020012901D054
:10341000108B00E0908A70470146088A7047B1F52A
:10342000804F04D1028842F48042028004E0028886
:103430004BF6FF731A400280704702460020138942
:103440000B400BB1012000E000207047202905D17E
:103450000289028842F04002028006E0402901D140
:10346000028902E002898A4302817047F0B5024670
:10347000002000240023002501F00F070126BE4094
:10348000B4B20B1101269E40B3B2968806EA03053A
:103490001689264016B10DB1012000E00020F0BDD4
:1034A00010B50022552905D10389038843F0400354
:1034B00003800BE0562901D1038907E001F00F04D6
:1034C0000123A3409AB203899343038110BD0000F6
:1034D00000C8FFBF042808D14FF0E021096941F07E
:1034E00004014FF0E022116107E04FF0E02109698B
:1034F00021F004014FF0E022116170474FF0E0210C
:103500004861704720B900214FF0E022916112E03C
:10351000012808D14FF0E021096941F001014FF085
:10352000E022116107E04FF0E021096921F001017B
:103530004FF0E0221161704740B14FF0E02109697E
:1035400041F002014FF0E022116107E04FF0E0216D
:10355000096921F002014FF0E022116170474FF03C
:10356000E0208069704710B501460022002300204A
:103570004A11012A03D14FF0E024236902E04FF001
:10358000E024E36901F01F02012494401C400CB1C7
:10359000012000E0002010BD10B50446B4F1804FBA
:1035A00006D0F648204460B1B0F5806F1BD111E021
:1035B00001210846FFF72AFE00210120FFF726FE21
:1035C00012E001210220FFF721FE00210220FFF777
:1035D0001DFE09E001210420FFF718FE0021042050
:1035E000FFF714FE00E000BF00BF10BD0A8882850F
:1035F0004A880285028802F09F0202808A88CB886E
:103600001A4303881A430280704730B50023002212
:10361000028C4C8814B14C88012C2BD1038B4C8824
:10362000D74D35F8144023404C88D64D35F814401A
:1036300022404C886CB9048C4FF6FE752C400484F3
:103640000C8823438C88848642F00102CC88224374
:103650000EE0048C4FF6EF752C4004840C8843EA8E
:1036600004238C88048742F01002CC8842EA0412BA
:10367000038333E04C88022C02D04C88032C2DD1DC
:10368000838B4C88BE4D35F8144023404C88BD4D8B
:1036900035F8144022404C88022C0ED1048C4FF691
:1036A000FF652C4004840C8823438C88848742F473
:1036B0008072CC8842EA04220FE0048C4EF6FF753B
:1036C0002C4004840C8843EA04238C88A0F84040F2
:1036D00042F48052CC8842EA04328383028430BDB3
:1036E0000A460021018B4FF6F37319401143018301
:1036F0007047F0B50C46154600210022018B028C64
:10370000068C4FF6FE773E40068447F60C76314035
:1037100045EA03163143BE1E324044F001063243EF
:103720000026068301830284F0BD02460020108B30
:103730004FF2FF3318404FF6FF7303EA012318439B
:1037400010837047F0B50C46154600210022002674
:10375000018B028C4FF6FF7707EA0416078C4FF6B1
:10376000EF7C07EA0C07078440F67F4739404FF6A5
:10377000FF7707EA033739434FF6FF7707EA052754
:1037800039434FF6CF773A4046F010073A4301836A
:103790000284F0BD2DE9F04105460C4600260127C4
:1037A000A08808B9022600E00026E088012801D19F
:1037B000022700E001276088A0B9A37AE288A188E7
:1037C0002846FFF796FF21892846FFF789FFA37A4D
:1037D0003A4631462846FFF7B5FF21892846FFF7CC
:1037E000A4FF13E0A37AE288A1882846FFF7AAFF86
:1037F00021892846FFF799FFA37A3A4631462846A1
:10380000FFF777FF21892846FFF76AFFBDE8F081BF
:1038100002460020908B4FF2FF3318404FF6FF73A3
:1038200003EA0123184390837047F0B50C46154610
:10383000002100220026818B028C4FF6FF7707EAD9
:103840000436078C4EF6FF7C07EA0C07078440F627
:103850007F4739404FF6FF7707EA05274FF6FF7C91
:103860000CEA033C47EA0C0739434CF6FF773A4031
:1038700046F480573A4381830284F0BD0A46002112
:10388000818B4FF6F3731940114381837047F0B574
:103890000C461546002200210026828B018C4FF633
:1038A000FF7707EA0426078C4FF6FF6C07EA0C0740
:1038B000078447F60C773A4045EA03173A434FF638
:1038C000FC77394046F48077394382830184F0BD28
:1038D00070B505460C462088072833D1608850B95A
:1038E000A37AE288A1882846FFF703FF21892846AA
:1038F000FFF7F6FE2AE0608801280AD1A37AE28861
:10390000A1882846FFF71EFF21892846FFF70DFFF3
:103910001CE0608802280AD1A37AE288A1882846A0
:10392000FFF7B5FF21892846FFF7A8FF0EE0A37A2D
:10393000E288A1882846FFF778FF21892846FFF70B
:1039400067FF03E021462846FFF724FF70BD0021F2
:10395000018041808180C1807047002101804180C9
:103960008180C180704707210180002141808180D2
:103970000121C180002101818172704700FCFFBFDD
:10398000BA900008C290000821B1028842F00102FA
:10399000028004E0028840F2FE331A400280704741
:1039A0001AB183890B43838102E083898B4383812E
:1039B000704710B50023B0F84830002341EA0204F4
:1039C0002343A0F8483010BD10B513460022828969
:1039D0000BB10A4302E0CC43A4B22240828110BD65
:1039E00001894FF6F0721140018170470A460021AB
:1039F00001894FF68773194011430181704730B533
:103A000004460D4629462046FFF7F0FF208940F086
:103A10000700208130BD2DE9F04104460D461646D1
:103A20001F46602D06D13B46012231462046FFF756
:103A300089FE05E03B46012231462046FFF759FE4C
:103A400029462046FFF7D2FF208940F00700208159
:103A5000BDE8F08130B50C460021018901F0F70185
:103A600044EA020545EA03252943018130BD2DE9D9
:103A7000F04104460D4616461F463B46324629464F
:103A80002046FFF7E7FF20894FF6F07108402081BC
:103A9000208940F00700208120894FF68771084077
:103AA0002081208940F070002081BDE8F0812DE95F
:103AB000F04104460D4616461F463B46324629460F
:103AC0002046FFF7C7FF208940F480402081BDE8F1
:103AD000F0810185012A04D1838A43F001038382A6
:103AE00003E0838A03F00103838270470A460021C2
:103AF000018840F29F3319401143018070470A4604
:103B00000021018B47F60F73194011430183704761
:103B100002460020108B40F67F7318404FF6FF736B
:103B200003EA01231843108370470A460021818B62
:103B300047F60F73194011438183704702460020F6
:103B4000908B40F67F7318404FF6FF7303EA012312
:103B50001843908370470A460021018812B141F052
:103B6000800102E040F27F331940018070470A462D
:103B70000021818812B141F0080101E001F0070144
:103B8000818070470A460021018B47F67773194000
:103B900011430183704702460020108B47F27F7368
:103BA00018404FF6FF7303EA012318431083704750
:103BB0000A460021818B47F67773194011438183B0
:103BC000704702460020908B47F27F7318404FF6F3
:103BD000FF7303EA01231843908370470A460021CC
:103BE000018B47F67B7319401143018370470246EE
:103BF0000020108B47F67F3318404FF6FF7303EA1F
:103C000001231843108370470A460021818B47F631
:103C10007B73194011438183704702460020908BCB
:103C200047F67F3318404FF6FF7303EA012318432A
:103C3000908370470A460021018812B141F00201C9
:103C400002E040F2FD33194001807047F0B50C46A8
:103C500015461E460022002100230289018B038C99
:103C60004FF6F0773A40224347F67C47394040F21E
:103C7000011739434FF6DD773B404FF6FF7707EAF0
:103C800006172F433B43028101830384F0BD828AE0
:103C90000A43828270470A460021018C4FF6FD7369
:103CA000194011430184704702460020108C4FF6E2
:103CB000DF7318404FF6FF7303EA011318431084B3
:103CC000704702460020108C4FF6FF5318404FF605
:103CD000FF7303EA01231843108470470246002053
:103CE000108C4DF6FF7318404FF6FF7303EA013353
:103CF0001843108470470A4600210188012A02D126
:103D000041F0040102E040F2FB33194001807047AA
:103D100021B1828842F08002828004E082884FF6DE
:103D200070731A40828070470A460021018840F271
:103D3000F73319401143018070470A4600218188FA
:103D400001F080011143818070470A4600210189FA
:103D50004FF6F07319401143018170470A46002164
:103D600001894FF6777319401143018170478185AE
:103D70007047818670470187704781877047A0F838
:103D8000401070470A4600210188C9B211430180E2
:103D900070470146888E70470146088F704701467C
:103DA000888F70470146B1F8400070470146888C03
:103DB00070470146088D704702460020138A0B4069
:103DC0000BB1012000E000207047028A8A43028282
:103DD000704730B50246002000230024158A05EA0A
:103DE0000103958905EA010413B10CB1012000E03B
:103DF000002030BD028A8A430282704700F1080128
:103E000041604FF0FF31816000F10801C160016144
:103E100000210160704700210161704742684A60DB
:103E200093688B60936859609160086103685B1CBC
:103E30000360704710B502460B685C1C0CB9106932
:103E400007E002F1080000E04068446824689C42F2
:103E5000FAD944684C604C68A160886041600A618E
:103E60001468641C146010BD01460A69D1E9013070
:103E70009860D1E9010358605068884201D1886890
:103E80005060002008611068401E10601068704784
:103E900070B505460E462C4601F051FBD4E90F12D1
:103EA000206801FB020060600020A0632068A06021
:103EB000E06B401E226C216800FB0210E060FF20D6
:103EC00084F8440084F845009EB9206908B90120AF
:103ED00000E00020A8B904F1100001F06FF880B1F3
:103EE0004FF08050F7490860BFF34F8FBFF36F8FDB
:103EF00007E004F11000FFF781FF04F12400FFF751
:103F00007DFF01F02BFB012070BD2DE9F04106463D
:103F10000D4617469846069C0DB9246000E02760C0
:103F2000E663256401212046FFF7B2FFBDE8F0817A
:103F30002DE9F84307460D4690460DB9002601E0ED
:103F400007FB05F606F1480001F04BFB044644B1BF
:103F500004F1480943464A46294638460094FFF78B
:103F6000D4FF2046BDE8F88370B5044601F0E7FAB7
:103F700094F9455010E0606A08B9012000E0002083
:103F800038B904F1240001F019F818B101F0AAF8C9
:103F900000E003E0681E45B2002DECDC00BFFF200E
:103FA00084F8450001F0DAFA01F0C9FA94F94450B6
:103FB00010E0206908B9012000E0002048B904F1B0
:103FC000100000F0FBFF08B101F08CF8681E45B24C
:103FD00000E001E0002DECDC00BFFF2084F844008D
:103FE00001F0BCFA70BD70B5054601F0A8FAA86BE7
:103FF000E96B884201D1012400E0002401F0AEFA0F
:10400000204670BD2DE9F04104460F4615464FF09D
:104010000008A66B206C28B37DB93946226CA068D5
:1040200001F05CFB216CA0680844A060D4E9011099
:10403000884217D32068A06014E03946226CE068FB
:1040400001F04CFB216CE068401AE0602168E068F8
:10405000884203D2216C6068401AE060022D01D1D1
:1040600006B1761E701CA0634046BDE8F0812DE9C4
:10407000FF4383B0074688461D464FF000093C4683
:1040800000BF01F05CFAA06BE16B884201D3022D06
:1040900028D12A4641462046FFF7B4FF0646606A0B
:1040A00008B9012000E0002068B904F1240000F004
:1040B00085FF88B14FF0805082490860BFF34F8F71
:1040C000BFF36F8F08E03EB14FF080507D4908602C
:1040D000BFF34F8FBFF36F8F01F040FA012007B09D
:1040E000BDE8F083059818B901F038FA0020F6E72A
:1040F000B9F1000F04D101A800F0C3FF4FF001098E
:1041000001F02CFA00F0A6FC01F019FA94F9440031
:10411000401C10B9002084F8440094F94500401C6C
:1041200010B9002084F8450001F018FA05A901A88B
:1041300000F0AEFFF0B92046FFF755FFA0B104F143
:104140001000059900F018FF2046FFF70DFF00F062
:10415000B5FB002895D14FF080505A490860BFF355
:104160004F8FBFF36F8F8CE72046FFF7FDFE00F007
:10417000A5FB86E72046FFF7F7FE00F09FFB002037
:10418000ADE72DE9F05F05468A4616461F462C46E8
:1041900000BFBF21EFF3118081F31188BFF34F8F70
:1041A000BFF36F8F00BF8146A06BE16B884201D3E4
:1041B000022F20D194F945B03A4651462046FFF7E8
:1041C00021FF0BF1010070B9606A08B9012000E01D
:1041D000002068B904F1240000F0F0FE40B13EB1C7
:1041E0000120306004E00BF1010040B284F845008A
:1041F0004FF0010801E04FF0000800BF89F311887B
:1042000000BF4046BDE8F09F2DE9F04705460E4649
:104210002C4600BFBF21EFF3118081F31188BFF35B
:104220004F8FBFF36F8F00BF8046D4F83890E06B9C
:1042300048451DD994F945A009F10100A0630AF190
:10424000010070B9606A08B9012000E0002068B977
:1042500004F1240000F0B2FE40B13EB10120306014
:1042600004E00AF1010040B284F84500012700E0B3
:10427000002700BF88F3118800BF3846BDE8F087EB
:1042800070B5054601F05BF9A86B08B9012400E0A0
:10429000002401F063F9204670BD70B504460D4658
:1042A000206C70B1216CE0680844E0606168E068EF
:1042B000884201D32068E0602846226CE16801F062
:1042C0000DFA70BD04ED00E02DE9FF4782B0054610
:1042D00089461E464FF0000A2C4600BF01F02FF918
:1042E000D4F83880B8F1000F36D0E7684946204648
:1042F000FFF7D3FFB6B9A8F10100A063206908B9A0
:10430000012000E0002008BB04F1100000F056FE80
:10431000E0B14FF0805085490860BFF34F8FBFF385
:104320006F8F13E0E760606A08B9012000E00020A9
:1043300060B904F1240000F041FE38B14FF0805024
:104340007A490860BFF34F8FBFF36F8F01F006F912
:10435000012006B0BDE8F087049818B901F0FEF816
:104360000020F6E7BAF1000F04D1684600F089FE9C
:104370004FF0010A01F0F2F800F06CFB01F0DFF8F9
:1043800094F94400401C10B9002084F8440094F9CA
:104390004500401C10B9002084F8450001F0DEF80B
:1043A00004A9684600F074FEF0B92046FFF768FFE4
:1043B000A0B104F12400049900F0DEFD2046FFF7CF
:1043C000D3FD00F07BFA002888D14FF08050574988
:1043D0000860BFF34F8FBFF36F8F7FE72046FFF773
:1043E000C3FD00F06BFA79E72046FFF7BDFD00F052
:1043F00065FA2046FFF744FF0028EED00020A8E72A
:104400002DE9F05F05468A4616462C4600BFBF21BF
:10441000EFF3118081F31188BFF34F8FBFF36F8FDC
:1044200000BF8046D4F83890B9F1000F21D094F93C
:1044300044B051462046FFF730FFA9F10100A063C8
:104440000BF1010070B9206908B9012000E00020DB
:1044500068B904F1100000F0B1FD40B13EB1012097
:10446000306004E00BF1010040B284F84400012701
:1044700000E0002700BF88F3118800BF3846BDE880
:10448000F09F2DE9F047054689462C4600BFBF2125
:10449000EFF3118081F31188BFF34F8FBFF36F8F5C
:1044A00000BF0746A06B48B1D4F80C8049462046AF
:1044B000FFF7F3FEC4F80C80012600E0002600BFE1
:1044C00087F3118800BF3046BDE8F08770B5044619
:1044D00001F035F8A56B01F041F8284670BD70B5C4
:1044E0000446254601F02BF8D5E90E10461A01F0D6
:1044F00035F8304670BD0146886B704770B504468C
:104500002546284601F0C0F870BD01468A6B0AB9FD
:10451000012000E00020704701468A6BCB6B9A4275
:1045200001D1012000E000207047000004ED00E010
:1045300010B5002407E004EB8401FE4A02EB810081
:10454000FFF75CFC641C052CF5D3FB48FFF756FC19
:10455000FA48FFF753FCFA48FFF750FCF948FFF719
:104560004DFCF948FFF74AFCF348F8490860F34866
:10457000F749086010BD10B5044600F0E0FFF548AB
:104580000068401CF3490860F348006840B9F248ED
:1045900004600846006801280DD1FFF7C9FF0AE052
:1045A000EE48006838B9EC480068C06AE16A8842A1
:1045B00001D8E9480460EA480068401CE8490860FE
:1045C00094F82C1001208840E64909680843E54921
:1045D0000860E16A01EB8101D64A02EB8100211DEE
:1045E000FFF71CFC00F0BAFFDC48006868B1DA484D
:1045F0000068C06AE16A884207D24FF08050DA4909
:104600000860BFF34F8FBFF36F8F10BD2DE9FF5FC1
:1046100080460E469146DDE90E7A109CA9F1010014
:10462000216B01EB800B2BF0070B002507E0715D80
:1046300004F134004155705D00B902E06D1C102D8D
:10464000F5D300BF002143200155052F00D30427D7
:10465000E762201DFFF7DFFB04F11800FFF7DBFB2B
:104660002461C7F10500A06164620020606484F8E1
:10467000480041465846039A00F035FF2060BAF1E1
:10468000000F01D0CAF80040BDE8FF9F2DE9FF4FA1
:1046900085B0804689461746DDE912ABB80000F0C8
:1046A000A0FF064656B14C2000F09BFF04460CB11B
:1046B000266304E0304600F0E7FF00E000247CB110
:1046C0000020CDE900ABCDE902403A4649464046DC
:1046D000089BFFF79BFF2046FFF74DFF012501E0F8
:1046E0004FF0FF35284609B0BDE8F08F97490968BB
:1046F000096809B9012100E0002121B14FF0FF3123
:104700009A4A116006E091490968C968C868974AE1
:1047100041681160704710B50446206B00F0B4FF8B
:10472000204600F0B1FF10BD70B5054600F007FF50
:1047300015B98948006800E028460446201DFFF7A7
:1047400093FB78B9E06A00EB80007A4951F82000C9
:1047500040B994F82C1001208840824909688143AF
:1047600080480160A06A18B104F11800FFF77CFBD3
:104770007B480068401C7A4908607748006884429A
:1047800009D1211D6F48FFF749FB79480068401C9B
:104790007749086009E06F480068401E6D4908606D
:1047A0002046FFF7B8FFFFF7A1FF00F0D7FE6B48E8
:1047B000006858B168480068844207D14FF08050C3
:1047C00069490860BFF34F8FBFF36F8F70BD2DE94C
:1047D000F041002767480068002863D166480068F8
:1047E000451C654805608DB95848D0F80080584888
:1047F0000068564908605648C0F800805F48006865
:10480000401C5E490860FFF771FF00BF5748006811
:1048100085423BD300BF4D480068006808B90120BD
:1048200000E0002020B14FF0FF30504908602CE03C
:1048300046480068C068C4686668B54202D24B4802
:10484000066022E0201DFFF70FFBA06A18B104F1FB
:104850001800FFF709FB94F82C100120884041490B
:10486000096808433F490860E16A01EB8101314A68
:1048700002EB8100211DFFF7D1FA3749E06A096890
:10488000C96A8842C7D30127C5E700BF324800681C
:10489000C06A00EB8000274951F82000012800D9A8
:1048A000012704E036480068401C35490860354857
:1048B000006800B101273846BDE8F08170B50024DA
:1048C000002600F03CFE2B480068401E2949086085
:1048D0000846006800287BD11E480068002877D071
:1048E00024E01748C068C46804F11800FFF7BCFA58
:1048F000201DFFF7B9FA94F82C10012088401949BF
:104900000968084317490860E16A01EB8101094A17
:1049100002EB8100211DFFF781FA0F49E06A096867
:10492000C96A884202D30120164908600448006819
:1049300050BB2AE0180100207C01002090010020DB
:10494000A4010020B8010020CC010020A400002018
:10495000A8000020B0000020A0000020BC00002023
:10496000CC000020B800002004ED00E0D0000020C2
:10497000AC000020D8000020B4000020C8000020B7
:10498000C0000020C400002001E0012000E0002061
:104990000028A6D00CB1FFF7A9FEFD48056865B157
:1049A00000BFFFF714FF10B10120FA4908606D1E27
:1049B000002DF6D10020F6490860F648006838B1AD
:1049C00001263007F4490860BFF34F8FBFF36F8FA4
:1049D00000F0C4FD304670BD2DE9F04105460E469D
:1049E000EE480768EE480068001DFFF73DFA50B931
:1049F000EB48006890F82C1001208840E9490968CC
:104A00008143E8480160681C38B936B1E448016860
:104A1000091DE548FFF702FA1AE07C19E048006832
:104A20004460BC4207D2DE480168091DDF480068C7
:104A3000FFF700FA0CE0DA480168091DDC4800685D
:104A4000FFF7F8F9DB480068844201D2D9480460D6
:104A5000BDE8F081D8480068401CD749086070471D
:104A60002DE9F047044688464FF00009FFF7F2FFB2
:104A7000CA480668206800EB08052068B04207D9DC
:104A80002068A8420BD9B54209D94FF0010906E0C8
:104A90002068A84201D8B54201D94FF0010925602C
:104AA000B9F1000F03D0A81B0021FFF795FFFFF716
:104AB00005FF07463FB94FF08050B7490860BFF384
:104AC0004F8FBFF36F8FBDE8F08770B504460025A8
:104AD00044B1FFF7BFFF00212046FFF77DFFFFF73E
:104AE000EDFE05463DB94FF08050AB490860BFF37D
:104AF0004F8FBFF36F8F70BD70B5044600F01FFD80
:104B000014B9A748006800E020460646F56A00F0A0
:104B100025FD284670BD70B5024600BFBF25EFF3E6
:104B2000118485F31188BFF34F8FBFF36F8F00BFE0
:104B3000214612B99A4C246800E014462346D86AEC
:104B400000BF81F3118800BF70BD2DE9F04780469A
:104B50000D464FF00009052D00D3042500F0EFFCB1
:104B6000B8F1000F02D18E48006800E040460446CC
:104B7000E66AAE4251D0B5420BD9894800688442FA
:104B80000DD087480068C06AA84208D84FF00109D4
:104B900005E083480068844201D14FF00109E76ACB
:104BA000E562A06900F0004010B9C5F10500A06100
:104BB00007EB8701814A02EB81016069884201D1DC
:104BC000012000E00020E0B1201DFFF74DF930B9D1
:104BD0000120B8407349096881437248016094F824
:104BE0002C10012088406F49096808436D4908600E
:104BF000E16A01EB8101714A02EB8100211DFFF79F
:104C00000DF9B9F1000F07D04FF0805062490860EC
:104C1000BFF34F8FBFF36F8F00BF00F09FFCBDE865
:104C2000F0876548006818B101205A4908601DE006
:104C30000020584908605B480068B0FA80F0C0F175
:104C40001F0101EB81025D4B03EB82004268526859
:104C5000426000F108024368934202D14268526800
:104C600042604268D2684E4B1A6000BF704770B510
:104C7000054600F064FC15B94948006800E0284684
:104C80000446201DFFF7F0F878B9E06A00EB8000D9
:104C90004A4951F8200040B994F82C10012088406E
:104CA0004049096881433F480160A06A18B104F196
:104CB0001800FFF7D9F8211D3B48FFF7AFF800F0C7
:104CC0004DFC3F48006828B100F039FCFFF70EFDAD
:104CD00000F044FC32480068844217D1384800682C
:104CE00040B14FF080502C490860BFF34F8FBFF3A5
:104CF0006F8F0BE02C48006832490968884203D165
:104D000000202749086001E0FFF78BFF70BD10B558
:104D1000014600200A46244C5369A34201D10123D5
:104D200000E0002373B1284C936AA34201D1012310
:104D300000E0002333B9936A0BB9012300E000239C
:104D400003B1012010BD70B505462C46F4B31448DC
:104D5000006884424BD000F0F2FB2046FFF7D7FFFB
:104D6000A8B3201DFFF780F894F82C10012088408C
:104D70000C49096808430B490860E16A01EB8101AD
:104D80000E4A02EB8100211DFFF748F804491FE09D
:104D9000C0000020C400002004ED00E0B4000020AA
:104DA000A0000020B8000020CC010020A8000020B6
:104DB000A4000020D0000020D8000020180100200E
:104DC000BC000020B0000020A40100200FE00CE097
:104DD000E06A0968C96A884207D34FF08050FE49EB
:104DE0000860BFF34F8FBFF36F8F00F0B7FB70BD4C
:104DF0002DE9F04106460027344600BFBF21EFF3FE
:104E0000118081F31188BFF34F8FBFF36F8F00BF05
:104E100005462046FFF77BFF20B3F0480068E0B965
:104E2000EF49E06A0968C96A884200D30127201D5A
:104E3000FFF71AF894F82C1001208840E949096816
:104E40000843E8490860E16A01EB8101E64A02EBA8
:104E50008100211DFEF7E2FF04E004F11801E348A0
:104E6000FEF7DCFF00BF85F3118800BF3846BDE8C0
:104E7000F08170B523E0FFF7EDFDDD48006808B96B
:104E8000012000E000200546FFF718FDBDB900F045
:104E900056FBD748C068C468201DFEF7E5FFD5481B
:104EA0000068401ED3490860D3480068401ED249BC
:104EB000086000F053FB2046FFF72DFC00BFCE48F2
:104EC00000680028D7D170BD00BFFFF7D2FFC648E9
:104ED00000680128F9D94FF08050BF490860BFF33E
:104EE0004F8FBFF36F8FF0E71CB5C44800210B460E
:104EF0008022CDE90010C2A1C348FFF7C7FB0446DA
:104F0000012C14D100BFBF2080F31188BFF34F8F55
:104F1000BFF36F8F00BF4FF0FF30BC490860012026
:104F2000BB4908600020BB49086000F0F2FA1CBDD4
:104F300010B500BFBF2080F31188BFF34F8FBFF3C0
:104F40006F8F00BF0020B249086000F0F7FA10BD73
:104F5000B049086870470021AE4A10687047A548FC
:104F600000687047014611B99D48006800E0084696
:104F7000024602F13400704770B505460C46984869
:104F8000016818312846FEF755FF01212046FFF73A
:104F900023FD70BD70B506460C46154644F0004032
:104FA0008F49096888618E48016818313046FEF7DC
:104FB00035FF01212846FFF70FFD70BD70B506468D
:104FC000F068C46804F11800FEF74EFF83480068DB
:104FD000A8B9201DFEF748FF94F82C100120884046
:104FE0008049096808437F490860E16A01EB810153
:104FF0007D4A02EB8100211DFEF710FF04E004F161
:1050000018017A48FEF70AFF7549E06A0968C96A1B
:10501000884204D9012501207F49086000E000256D
:10502000284670BD2DE9F04105460F4647F0004087
:105030002860EC682846FEF717FF201DFEF714FFD6
:1050400094F82C1001208840664909680843654996
:105050000860E16A01EB8101634A02EB8100211DD6
:10506000FEF7DCFE5E49E06A0968C96A884204D935
:10507000012601206849086000E000263046BDE8AE
:10508000F0816649096801606249096841607047BA
:1050900070B504460D4600F052FA5E480268286872
:1050A000401C08B9002619E05C492068096888425C
:1050B00004D06068904201D801260FE06068101AA1
:1050C0002968884209D228686168511A401A286004
:1050D0002046FFF7D6FF002600E0012600F03EFA4A
:1050E000304670BD01204C49086070473C49096852
:1050F00088693B490968C96AC1F10501384A1268E3
:105100009161704770B506460D4600F018FA3448B4
:105110000068406C88B901203149096881F848006D
:105120005DB101212846FFF757FC4FF080502A4916
:105130000860BFF34F8FBFF36F8F00F00FFA00F0DE
:10514000FEF927480068446C4CB126B10020244980
:105150000968486403E0601E21490968486400202A
:105160001F49096881F8480000F0F8F9204670BD31
:105170002DE9F0410746884614461D4600F0DFF948
:105180001748006890F84800022818D014490968A8
:1051900001F14400496CB9430160012010490968DC
:1051A00081F848005DB101212846FFF715FC4FF05A
:1051B000805009490860BFF34F8FBFF36F8F00F035
:1051C000CDF900F0BCF91CB105480068406C2060C6
:1051D0000348006824E0000004ED00E0D80000204F
:1051E000A0000020B800002018010020A401002029
:1051F000B8010020B0000020AC000020D400002046
:1052000049444C4500000000C94E0008D000002071
:10521000BC000020B4000020C4000020C800002012
:1052200090F84800012801D1002608E0A14909684A
:1052300001F14400496C21EA0801016001260020C7
:105240009C49096881F8480000F088F93046BDE8BB
:10525000F0812DE9F04781460D4616461F464FF076
:10526000010A4C4600F06BF90FB1606C386094F89D
:105270004880022084F84800052E17D2DFE806F0A7
:105280001503070B0D00606C284360640EE0606C32
:10529000401C60640AE0656408E0B8F1020F01D0C8
:1052A000656401E04FF0000A00E000BF00BFB8F104
:1052B000010F22D1201DFEF7D7FD94F82C100120FC
:1052C00088407D49096808437B490860E16A01EB31
:1052D00081017A4A02EB8100211DFEF79FFD75498D
:1052E000E06A0968C96A884207D94FF0805074495A
:1052F0000860BFF34F8FBFF36F8F00F02FF9504658
:10530000BDE8F0872DE9F84F82460D4616461F4648
:10531000DDF828B001200090544600BFBF21EFF314
:10532000118081F31188BFF34F8FBFF36F8F00BFE0
:1053300081460FB1606C386094F84880022084F890
:105340004800052E17D2DFE806F01503070B0D0005
:10535000606C284360640EE0606C401C60640AE08E
:10536000656408E0B8F1020F01D0656401E0002037
:10537000009000E000BF00BFB8F1010F2DD15148EF
:105380000068A8B9201DFEF76FFD94F82C100120CD
:10539000884049490968084347490860E16A01EBC8
:1053A0008101464A02EB8100211DFEF737FD04E032
:1053B00004F118014448FEF731FD3E49E06A0968EE
:1053C000C96A884209D9BBF1000F03D00120CBF88C
:1053D000000002E001203D49086000BF89F3118808
:1053E00000BF0098BDE8F88F2DE9F04105460E4654
:1053F0002C4600BFBF21EFF3118081F31188BFF36A
:105400004F8FBFF36F8F00BF074694F8488002208C
:1054100084F84800606C401C6064B8F1010F2AD128
:1054200028480068A8B9201DFEF71EFD94F82C102E
:10543000012088402049096808431F490860E16A43
:1054400001EB81011D4A02EB8100211DFEF7E6FC04
:1054500004E004F118011C48FEF7E0FC1549E06A7D
:105460000968C96A884206D916B10120306002E095
:1054700001201649086000BF87F3118800BFBDE80E
:10548000F08170B5054615B90A48006800E0284665
:10549000064600F054F896F84800022804D100208F
:1054A00086F84800012400E0002400F057F8204668
:1054B00070BD0000A0000020B800002018010020EE
:1054C00004ED00E0D8000020A4010020C40000206A
:1054D00000BFBF2080F31188BFF34F8FBFF36F8FE2
:1054E00000BF00BFFEE7001F4FF080730360001F86
:1054F00021F001030360001F2B4B0360143802608E
:105500002038704729484FF0E021486107200861A2
:10551000704710B52648006840F47F0024490860B1
:105520000846006840F07F400860FFF7EBFF00206E
:1055300020490860FAF7F6FD002010BD704700BF53
:10554000BF2080F31188BFF34F8FBFF36F8F00BF71
:1055500018480068401C17490860704715480068E3
:10556000401E144908600846006820B9002080F3F6
:10557000118800BF00BF704710B500BFBF2080F387
:105580001188BFF34F8FBFF36F8F00BFFFF71FF975
:1055900020B14FF0805006491C39086000BF002040
:1055A00080F3118800BF10BDD15400083F190100DD
:1055B00020ED00E0DC000020434A22F00700434ACF
:1055C00010600022414B5A6044F2F832404B5A605E
:1055D00000221A60014644F2F8324A601A460A6014
:1055E00070472DE9F04104464FF00008FFF732FA0A
:1055F0003848006820B9FFF7DFFF0120354908600F
:1056000044B1083404F0070020B104F00700C0F1F1
:1056100008000444002C32D044F2F83084422ED2E8
:105620002A4F3846056801E02F462D686868A04279
:1056300002D228680028F7D1254885421FD0386853
:1056400000F10808286838606868001B102810D925
:105650002E196868001B70606C6071681B4800E060
:105660000068026852688A42FAD3026832600660B3
:1056700000BF194968680968081A17490860FFF7E8
:105680001DF94046BDE8F08170B506463546B6B115
:10569000083D2C46FFF7DEF961680C4800E0006821
:1056A000026852688A42FAD30268226004600A499A
:1056B00060680968084408490860FFF7FFF870BD92
:1056C0000548006870477047E8010020E0000020AE
:1056D000E8000020F4000020F000002040EA010370
:1056E0009B0703D009E008C9121F08C0042AFAD298
:1056F00003E011F8013B00F8013B521EF9D270475C
:1057000030B50B46014600202022012409E021FA91
:1057100002F59D4205D303FA02F5491B04FA02F58E
:105720002844151EA2F10102F1DC30BD064C074DE4
:1057300006E0E06840F0010394E807009847103461
:10574000AC42F6D3FAF7D6FCCC900008EC900008F7
:105750000FB4054B10B503A9044A029800F02CF8C9
:1057600010BC5DF814FB000037070008F8000020AB
:105770000FB4084B10B504A902AA039800F01CF856
:10578000044602A9002000F0C1F8204610BC5DF8D4
:1057900014FB00000D59000802E008C8121F08C1E0
:1057A000002AFAD170477047002001E001C1121FA2
:1057B000002AFBD1704700002DE9FF4F89B09B46BE
:1057C0000446002506E025280BD05A460B99904741
:1057D000641C6D1C20780028F5D10DB02846BDE86A
:1057E000F08F0027B8460122474900E0074314F82C
:1057F000013F203B02FA03F00842F7D120782E281F
:1058000019D114F8010F47F004072A280ED06FF0C1
:105810002F022078A0F1300109290CD808EB88016B
:1058200002EB410100EB0108641CF2E70A98641CDA
:1058300050F8048B0A9020780028CED0642808D035
:10584000692806D075281ED05A460B9990476D1CC2
:1058500058E00A994FF00A0901C90A91002802DAB2
:1058600040422D2102E0390504D52B218DF820106E
:10587000012103E0F90704D02021F7E78A4608AEAA
:105880000DE00021FAE70A994FF00A0901C90A91CF
:10589000F7E74946FFF734FF303106F8011D0028CD
:1058A000F7D1ADEB060000F12009780701D44FF0E5
:1058B0000108C84502DDA8EB090000E00020804691
:1058C000002706E008A85A46C05D0B9990476D1C5A
:1058D0007F1C5745F6DB04E030205A460B99904771
:1058E0006D1CB8F10001A8F10108F5DC05E016F81F
:1058F000010B5A460B9990476D1CB9F10001A9F1B3
:105900000109F4DC641C65E7092801000A68531CDE
:105910000B6010707047FFFFFFFFFFFFFFFFFFFFEF
:10592000FFFFFFFFFFFFFFFFFFFFFFFFFFFFFFFF87
:10593000FFFFFFFFFFFFFFFFFFFFFFFFFFFFFFFF77
:10594000FFFFFFFFFFFFFFFFFFFFFFFFFFFFFFFF67
:10595000FFFFFFFFFFFFFFFFFFFFFFFFFFFFFFFF57
:10596000FFFFFFFFFFFFFFFFFFFFFFFFFFFFFFFF47
:10597000FFFFFFFFFFFFFFFFFFFFFFFFFFFFFFFF37
:10598000FFFFFFFFFFFFFFFFFFFFFFFFFFFFFFFF27
:10599000FFFFFFFFFFFFFFFFFFFFFFFFFFFFFFFF17
:1059A000FFFFFFFFFFFFFFFFFFFFFFFFFFFFFFFF07
:1059B000FFFFFFFFFFFFFFFFFFFFFFFFFFFFFFFFF7
:1059C000FFFFFFFFFFFFFFFFFFFFFFFFFFFFFFFFE7
:1059D000FFFFFFFFFFFFFFFFFFFFFFFFFFFFFFFFD7
:1059E000FFFFFFFFFFFFFFFFFFFFFFFFFFFFFFFFC7
:1059F000FFFFFFFFFFFFFFFFFFFFFFFFFFFFFFFFB7
:105A0000FFFFFFFFFFFFFFFFFFFFFFFFFFFFFFFFA6
:105A1000FFFFFFFFFFFFFFFFFFFFFFFFFFFFFFFF96
:105A2000FFFFFFFFFFFFFFFFFFFFFFFFFFFFFFFF86
:105A300001FC039F3FFE0C8003F8017080FF0FF014
:105A4000F8C73F00FFFFFFFF037800F8C0FFE0FF4B
:105A5000FFFFFFFFFFFFFFFF01F8019E3FFE0C80ED
:105A600003F0017000FE0FE0F9E73F00FFFFFFFFCA
:105A700003700078803F80FFFFFFFFFFFFFFFFFF05
:105A8000F9F1783C9F7CCEFFF3E3F97F7EFCCFC732
:105A9000F3F33FFFFFFFFFFFF3E3CF3F1E1F1FFFA7
:105AA000FFFFFFFFFFFFFFFFF973FE399F7CCEFF73
:105AB000F3E7F97FFEFCCFCFE3F13FFFFFFFFFFFEE
:105AC000F3E7CF9F7F9E3FFFFFFFFFFFFFFFFFFF3B
:105AD000F933FE319F7CCEFFF3E7F97FFEF9CFCF9C
