:020000040800F2
:10000000385B0020890200080F230008111A00083D
:100010000B2300089D1600088B2B00080000000031
:10002000000000000000000000000000F1010008D6
:10003000A116000800000000350200086128000831
:10004000A3020008A3020008A3020008A3020008FC
:10005000A3020008A302000839170008A302000841
:10006000A3020008A3020008A3020008A3020008DC
:10007000A3020008A3020008A3020008A3020008CC
:10008000A3020008A3020008A3020008A3020008BC
:10009000A3020008A3020008A3020008A3020008AC
:1000A000A3020008A3020008A3020008A30200089C
:1000B000A3020008D1280008A3020008A302000838
:1000C000A3020008A3020008A3020008A30200087C
:1000D000A302000869290008A3020008A30200087F
:1000E0009D170008A3020008A3020008A30200084D
:1000F000A3020008A3020008A3020008A30200084C
:10010000A3020008A302000809290008A3020008AE
:10011000A3020008A3020008A3020008A30200082B
:10012000A3020008A3020008A3020008A30200081B
:1001300000F002F800F04DF80AA090E8000C8244AC
:100140008344AAF10107DA4501D100F042F8AFF289
:10015000090EBAE80F0013F0010F18BFFB1A43F0A5
:1001600001031847985C0000B85C0000103A24BFF7
:1001700078C878C1FAD8520724BF30C830C144BF0C
:1001800004680C607047000000230024002500264E
:10019000103A28BF78C1FBD8520728BF30C148BFEA
:1001A0000B607047662905F0A383642900F0FE8088
:1001B000732900F0A684002070471FB500F00CFDE5
:1001C00004000020002105F081F9E0601FBD10B59A
:1001D00010BD00F02DFE1146FFF7EFFF02F0ECFD21
:1001E00000F04BFE03B4FFF7F2FF03BC02F0EAFCA1
:1001F000224B19680868B0E8F00F80F30988BFF354
:100200006F8F4FF0000080F311884EF00D0E704795
:100210000000000006480068006880F3088862B6A5
:1002200061B6BFF34F8FBFF36F8F00DF00BF00BF1A
:1002300008ED00E0EFF30980BFF36F8F0F4B1A68F2
:1002400020E9F00F106008B54FF0500080F31188DE
:10025000BFF34F8FBFF36F8F04F00CFA4FF0000025
:1002600080F31188BDE8084019680868B0E8F00F0D
:1002700080F30988BFF36F8F704700BF50000020E4
:10028000EFF30580704700000948804709480047A0
:10029000FEE7FEE7FEE7FEE7FEE7FEE7FEE7FEE736
:1002A000FEE7FEE704480549054A064B7047000093
:1002B000712800083101000838550020385B002003
:1002C0003857002038570020704700000FB4044909
:1002D00010B503AA029800F019FC10BC5DF814FBDD
:1002E000040000200FB41CB5074B06AA7B446946E6
:1002F0000090059800F0DBFB0020694600F0EAFB67
:100300001CBC5DF814FB0000E507000070B5044656
:1003100085690068C10601D5302600E02026C007A7
:1003200007D070BDD4E9012130469047206A401CB7
:1003300020626D1EF6D570BD70B5044685690078E3
:10034000C00707D170BDD4E9012120209047206A61
:10035000401C20626D1EF6D570BD70B50C4605467A
:10036000012A05D02878800600D5EA69002302E03A
:10037000012305E05B1C934202D2E05C0028F9D126
:10038000A869E618C01AA861286A18442862284695
:10039000FFF7BCFF04E0D5E9012114F8010B9047F9
:1003A000B442F8D32846FFF7C7FF70BD2DE9F041EE
:1003B0000646002410687529314616A510D0AFF303
:1003C0000080002802DA404213A507E031688A075E
:1003D00001D512A502E0490704D511A5012401E0C9
:1003E000AFF3008000210A2206F1240709E0B0FBE8
:1003F000F2FCB0FBF2F302FB1C00303078541846DC
:10040000491C0028F3D123462A463046BDE8F04176
:1004100000F0E0B8000000002D0000002B000000FC
:10042000200000002DE9F0474FF0000A89460446FD
:10043000C0F820A02046E1688847002876D025280B
:1004400006D0D4E901219047206A401C2062F1E7E0
:10045000E168204600258847C4F81CA0064600270E
:10046000C4F818A02A2E09D0304602F0A4FB38B3F5
:1004700004EB8708303EC8F8186019E059F8041BEF
:10048000204604EB87029161E1688847012F064608
:1004900018D1E069002820DA25F020051DE0D8F801
:1004A000180000EB800006EB40003038C8F8180058
:1004B0002046E1688847064602F07DFB0028EED121
:1004C000012F0AD02E2E08D12046E16888477F1CD4
:1004D0000646022F45F02005C4DBA069002803DA98
:1004E000404245F00105A061E80701D025F0100564
:1004F000B6B1A6F14100192802D8203645F40065AE
:100500004A463146204625604D46FFF74BFE58B11E
:10051000012806D0ED1D25F0070000F1080989E744
:1005200004E005F1040985E730468AE7206ABDE862
:10053000F087032A40F2308010F0030C00F01580A1
:1005400011F8013BBCF1020F624498BF11F801CBD6
:1005500000F8013B38BF11F8013BA2F1040298BF3B
:1005600000F801CB38BF00F8013B11F0030300F0A5
:10057000DF82083AC0F0088051F8043B083A51F88D
:1005800004CBA0E80810F5E7121D5CBF51F8043B4E
:1005900040F8043BAFF30080D20724BF11F8013BC1
:1005A00011F801CB48BF11F8012B24BF00F8013B23
:1005B00000F801CB48BF00F8012B704702F0FF03A1
:1005C00043EA032242EA024200F0E6BA704770476B
:1005D000704770472DE9F0470D469946924604460C
:1005E00000F124080168880604D5E06921F01001B3
:1005F000216000E00120A84201DD471B00E0002748
:10060000A1697A1902EB0900081AA0612078C006D6
:1006100002D42046FFF77AFE002608E0D4E9012143
:100620001AF806009047206A401C761C20624E454E
:10063000F4DB2078C0060AD52046FFF767FE06E007
:10064000D4E9012130209047206A401C2062381EE6
:10065000A7F10107F4DC07E0D4E9012118F805004F
:100660009047206A401C2062281EA5F10105F3DC9A
:100670002046FFF761FE2078000602D50220BDE883
:10068000F0870120FBE770472DE9FF4F0C461E461F
:100690004FF0FF378BB0D2E90001DDF860800A909F
:1006A0008A46C1F30A5505B93D46002108464FF078
:1006B0000000BAF1000F00F4400005DA00EB800002
:1006C0004FF4400101EA50004FEA9059B9F1010F8F
:1006D00000DDB9460A9850EA4A000ED044F61050A0
:1006E000A5F2FF3545432F14B8F1000F1ED0754217
:1006F000291E1EDDC9F100021CE0B8F1010F4FF008
:10070000000001D0302103E0F24305E02154401CF9
:10071000B042FBDB30460022002121540B99C1F886
:100720000880C1E900200FB0BDE8F08FBD1B6D1C33
:10073000DEE74A4600DA694206A800F0D7FA06ABBF
:1007400093E8070003AB83E8070050460A9900F0DE
:10075000DDFB8DE80700A0F500501F3800900398DE
:10076000002D0ADD42F21F014A460844002303A976
:100770000390684600F046FE09E0A0F500504A46A6
:100780001F38002303A90390684600F050FE8DE84F
:1007900007000004000C03D04FF0FF30410800E0D8
:1007A0001046B8F1000F03D00022009215461EE05B
:1007B000751E05D400F014FA303262556D1EF9D55D
:1007C000B3460122084302D000227F1C04E02078B7
:1007D000302801D100227F1E002A099784D01DE015
:1007E000112D07DA00F0FCF9303262556D1C50EA29
:1007F0000102F5D1084302D00098C8B10EE00021F3
:10080000681E05E0235C625C63542254401E491C50
:100810008142F7DBAB46A81B401E0990002004F87C
:100820000B000B98099AC0F80880C0E9002B7AE702
:1008300011264FF0000857E72DE9F04F884604468F
:10084000D21D22F0070191B0D1E90001CDE90A01E2
:1008500002F09DF902460B98C00F01D02D2007E051
:100860002068810701D52B2002E0202101EAC00089
:10087000032A099001D0072A05DB0346414620469A
:1008800000F0F4F90BE12078800601D5E06900E082
:100890000620B8F1650F814606D0B8F1660F18D072
:1008A000B8F1670F70D131E00020B9F1110F00905D
:1008B00001DB112301E009F101030AAA01A90CA837
:1008C000FFF7E2FEDDE90C70002609F10105834621
:1008D00047E001204B4600904FF000470AAA01A9CB
:1008E0000CA8FFF7D1FEDDE90DB00C995D4600269E
:1008F00010B909F101000D18B9EB050003D4C0F1DE
:10090000FF3609F10105A5EB09002BE0B9F1010F54
:1009100001DA4FF001090020B9F1110F00904846AB
:1009200001DD112300E003460AAA01A90CA8FFF784
:10093000ABFEDDE90C704D460026834620780007AB
:100940000AD4AB4500DA5D4601A8012D04DD41194A
:1009500011F8011C302907D04F4502DA17F1040FB6
:1009600004DA012082460FE06D1EEEE7002F02DC64
:10097000ED1B3E4403E0781CA84200DD7D1CB81B43
:1009800000F1010A4FF000472078000703D4AA4580
:1009900001DB4FF0FF3A0021B7F1004F0DF14308A2
:1009A0008DF8431024D002202B23002F01DA7F4240
:1009B0002D230A21021EA0F1010000DC5FB197FB8C
:1009C000F1FC97FBF1F201FB1C7C17460CF1300C9B
:1009D00008F801CDEEE7A8F10100037021880905B0
:1009E00001D5452100E06521A0F1010800F8011CB6
:1009F00009980FA9A1EB0807FF1D00B101204119BB
:100A000001EBEA70A1693844081A401EA061207801
:100A1000C00602D42046FFF779FC099828B1D4E932
:100A200001219047206A401C20622078C00622D510
:100A30002046FFF76BFC1EE0002E04DBB34502DD11
:100A400001A8805D00E03020D4E901219047206AB0
:100A5000401C2062761CAAF101005FEA000A0AD15C
:100A600000F0BAF8C0680168405CD4E90121904701
:100A7000206A401C2062281EA5F10105DCDC07E08D
:100A8000D4E9012118F8010B9047206A401C20622C
:100A9000381EA7F10107F3DC2046FFF74DFC0320C9
:100AA00011B041E601694A1C02610878704700B53F
:100AB0008FB0CDE901310021059105497944CDE997
:100AC000031011466846FFF7ADFC0FB000BD0000F3
:100AD000E5FFFFFF0A6802F8010B0A60704710B5D6
:100AE000436913B1AFF3008001E0FFF736FC01204A
:100AF00010BD127800F124010A7000224A70012210
:100B0000EDE711684FF0FF32E9E70000074B70B5E1
:100B10000D467B44FFF7CBFF0446284600F058F90A
:100B200010B14FF0FF3070BD204670BD6F21000046
:100B300010B5203AC0F00B80B1E81850203AA0E878
:100B40001850B1E81850A0E81850BFF4F5AF5FEAAC
:100B5000027C24BFB1E81850A0E8185044BF18C95F
:100B600018C0BDE810405FEA827C24BF51F8043B06
:100B700040F8043B08BF7047D20728BF31F8023B5A
:100B800048BF11F8012B28BF20F8023B48BF00F8EE
:100B9000012B70474FF000020429C0F0128010F0C2
:100BA000030C00F01B81CCF1040CBCF1020F18BF48
:100BB00000F8012BA8BF20F8022BA1EB0C0100F0DC
:100BC0000DB95FEAC17C24BF00F8012B00F8012BAE
:100BD00048BF00F8012B704700487047F8540020C8
:100BE00030B5B0F10A024FEA900E71F100034EEAFF
:100BF000817EB0EB0E0061EB91014FEA101E4EEAD0
:100C0000017E10EB0E0041EB11114FEA102E4EEA5F
:100C1000016E10EB0E0041EB11214FEA104E4EEA2F
:100C2000014E10EB0E0041EB1141401841F1000163
:100C30004FEAD00040EA41704FEAD10110EB800545
:100C40004FEA810444EA907444EB01046D1944EBCB
:100C50000404521BA3414FF0000348BF0A3200D5E1
:100C600030BD401C41F1000130BD00002DE9F041D4
:100C70001F46044603260168072A01F4006004DBCE
:100C800008B116A505E016A503E008B115A500E01A
:100C900015A521F010002060A069C01EA0610FB151
:100CA000401EA0612046FFF731FB4FB1D4E901217E
:100CB00038469047206A401C2062C01C206206E033
:100CC000206AFAE7D4E9012115F8010B9047761E56
:100CD000F8D22046FFF730FBBDE8F0814E414E00D0
:100CE0006E616E00494E4600696E66002DE9F04760
:100CF000814616468AB0354878440DC88DE80D0007
:100D000032487844801C03AC0DC884E80D0041F6DD
:100D10009B300844372190FBF1F290FBF1F5A5F1EF
:100D2000800501FB12041B3C02D56442012000E057
:100D30000020DFF898A080460027FA44AAF1BE0AF6
:100D40000EE0E0070AD03246684607EB4701012370
:100D50000AEB810100F06BFB8DE8070064107F1C3B
:100D6000002CEED1194F7F44AE3F19E0E80715D0B3
:100D700007EB04100DF1180A90E80E008AE80E0047
:100D8000C068F04201D1981908903246012306A9A3
:100D900003A800F04CFB03AB83E807006D10641C54
:100DA000002DE3D14FF0010332466946B8F1000F40
:100DB00003A802D000F026FB01E000F038FBC9E9EF
:100DC0000001C9F808200AB0BDE8F087E85000002B
:100DD000007B00F0800070474FF0000200B5134622
:100DE00094469646203922BFA0E80C50A0E80C504B
:100DF000B1F12001BFF4F7AF090728BFA0E80C50FC
:100E000048BF0CC05DF804EB890028BF40F8042BF4
:100E100008BF704748BF20F8022B11F0804F18BF61
:100E200000F8012B7047000000487047D85400209C
:100E30007546FFF7F9FFAE4605006946534620F0B8
:100E40000700854618B020B5FFF72CFABDE8204012
:100E50004FF000064FF000074FF000084FF0000B76
:100E600021F00701AC46ACE8C009ACE8C009ACE829
:100E7000C009ACE8C0098D46704710B50446AFF311
:100E800000802046BDE81040FFF7ACB94FF0013CB0
:100E900050F8042B51F8043B9A4221D1A2EB0C03E9
:100EA000934313EACC1317D150F8042B51F8043BA9
:100EB0009A4215D1A2EB0C03934313EACC130BD146
:100EC00050F8042B51F8043B9A4209D1A2EB0C03D1
:100ED000934313EACC13DBD04FF00000704700BF00
:100EE000D01A01BAB1FA81F101F0180122FA01F029
:100EF000CB40C1F12001DBB2C0B2C01A2CFA01F321
:100F0000D11A914311EAC311E6D170475FEA400C50
:100F100008BF91F0000F4FEA8C234FEAC12243EA49
:100F200051514FEA1C5018BF00F5F0404FEA300015
:100F300018BF41F000415FEA6C5C00F02980BCF111
:100F4000FF3F08BF40F080407047130C06BF1204FB
:100F50004FF0100C4FF0000C130E04BF12020CF1F6
:100F6000080C130F04BF12010CF1040C930F04BF03
:100F700092000CF1020CD30F04BF52000CF1010CD3
:100F800011464FF00002A0F11F00A0EB0C007047CB
:100F900011F0004F08BF704731F000413FF4D5AF6A
:100FA0000B0C06BF09044FF0100C4FF0000C0B0E99
:100FB00004BF09020CF1080C0B0F04BF09010CF16E
:100FC000040C8B0F04BF89000CF1020CCB0F04BF83
:100FD00049000CF1010CCCF12003A0EB0C0022FA2B
:100FE00003F302FA0CF241EA030100F10100704739
:100FF00020F07F4C80EA030023F07F47ACEB07032F
:1010000003F57C5300F0004003F1FF032DE9804914
:101010004FEA154B09B44FEA144325EA0B4E24EA74
:1010200003480FF2042606EB132749083E785FEACF
:10103000320203FB0667C7F5000707FB06F64FEA17
:1010400054374FEAD64606F1020607FB066CCCF190
:10105000005C4FEA1C472CEA074C07FB06F40CFB2C
:1010600006F504EB15464FEA961634BF00204FF004
:1010700000404FEAD13706FB07FC4FEA1C4C0CFB43
:101080000BF7D21B03FB0CF761EB07010CFB0EF710
:10109000B0EB074072EB17420CFB08F734BFA2EB32
:1010A0000742B2EB074261EB17414FEA0C444FEAAB
:1010B000910706FB07FC4FEA1C4C0CFB0BF7B0EB4F
:1010C000C74072EB573203FB0CF734BFA2EBC742A9
:1010D000B2EBC74261EB57310CFB0EF7B0EBC70028
:1010E00072EB57720CFB08F734BFA2EBC702B2EBEE
:1010F000C70261EB5771039F4FEA816141EA921188
:1011000004EBCC044FEAD1374FEA826206FB07FCBE
:1011100042EA90124FEA80604FEA1C4C0CFB0BF73E
:10112000D21B03FB0CF761EB07010CFB0EF7B0EBD6
:10113000074072EB17420CFB08F734BFA2EB0742E3
:10114000B2EB074261EB17414FEA8C554FEA91072A
:1011500004EB9C2406FB07FC4FEA1C4C0CFB0BF732
:10116000B0EBC74072EB573203FB0CF734BFA2EB76
:10117000C742B2EBC74261EB57310CFB0EF7B0EB45
:10118000C70072EB57720CFB08F734BFA2EBC70223
:10119000B2EBC70261EB577115EB4C254FEA816149
:1011A00041EA92114FEA82624FEAD13742EA901245
:1011B00006FB07FC44F100044FEA80604FEA1C4C38
:1011C0000CFB0BF7D21B03FB0CF761EB07010CFBCD
:1011D0000EF7B0EB074072EB17420CFB08F734BF79
:1011E000A2EB0742B2EB074261EB174115EB1C156E
:1011F0004FEA813141EA92414FEA823242EA90421B
:101200004FEA80304FEA0C7644F1000448EA034389
:101210004EEA0B484FF0000EB2EB080C71EB0307DF
:1012200024BF624639464EEB0E0E4FF0000B0018FD
:10123000524149414BEB0B0BB2EB080C71EB03072E
:101240007BF1000B24BF624639464EEB0E0E4FF089
:10125000000B0018524149414BEB0B0BB2EB080C51
:1012600071EB03077BF1000B24BF624639464EEB5E
:101270000E0E51EA020718BF46F0010616EB0E7675
:1012800055F1000254F1000103D5BDE88901BDE824
:101290000088BDE88901BDE80048B619524141EB1C
:1012A0000101A3F10103704780807F7E7D7C7B7A02
:1012B0007978777676757473727171706F6E6E6D02
:1012C0006C6C6B6A6A6968686766666564646363A8
:1012D00062616160605F5F5E5E5D5D5C5C5B5B5A2E
:1012E0005A5959585857575656555555545453539B
:1012F00052525251515050504F4F4F4E4E4D4D4DF6
:101300004C4C4C4B4B4B4A4A4A4949494848484740
:10131000474747464646454545444444444343437E
:101320004342424242414141002B9C4630D4770027
:101330002BD01CB54FEA370703B44FF010004FF025
:101340001001BAF1000F06D0BCF1000FDCBF40F075
:10135000080040F008014FF000000FBCBDE810404D
:101360000BF1010BBBF1010F08BF5FEA170722BFAA
:1013700012F1010211F101014FF0004143F10003AC
:1013800000F0004043EA00007047F9D35708D0E767
:1013900046EA064613F1400F4FEA16461FDD13F1E9
:1013A000200FDFBF16430A46002120335B42BED028
:1013B000C3F1200746EA064602FA07F74FEA164647
:1013C00046EA0706C3F1200722FA03F201FA07F7FB
:1013D00021FA03F14FF0000342EA0702A7E746EAC9
:1013E000020646EA06464FEA164646EA0106BCBF32
:1013F00046EA0646360C4FF000034FF000024FF06D
:10140000000194E72DE9804C9A46934670B491E828
:10141000380007C831EA400C48BF34EA430C03D512
:10142000FFF7E6FDFFF780FFF0BCBDE8008C2DE97B
:10143000804C9A46934670B491E8380007C810F083
:10144000804F08BF13F0804F03D100F005F8FFF77D
:101450006BFFF0BCBDE8008C20F07F4780EA030002
:1014600023F07F4C07EB0C03A3F57C5300F0004006
:10147000A3F1FE0392F0000F00F0B38095F0000F8F
:1014800000F077802DE901494FEA11404FEA1446F8
:1014900021EA004800FB06FC24EA064708FB06F6A2
:1014A00007FB08F800FB07F718EB06484CEB164C57
:1014B0004FEA124B18EB07484FEA15464CEB174022
:1014C00022EA0B4E0BFB06FC25EA06470EFB06F64E
:1014D00007FB0EFE0BFB07F71EEB064E4CEB164C04
:1014E0004FF000061EEB074E4CEB174B18EB0B08AA
:1014F00040F1000018EB0E0B58EB000840F1000023
:101500008F1A4FF000013CBFC943661B14BFB5EBF7
:10151000040C00213CBFC943F61B4FEA17444EEAB6
:101520008E0E27EA04454FEA1C4704FB07622CEAAB
:10153000074C05FB07F70CFB05F604FB0CFC16EB50
:10154000074642EB174216EB0C4642EB1C421BEBE4
:10155000060658EB0202414146EA9E0601D5BDE867
:101560000189B619524141EB0101A3F10103BDE824
:1015700001894FEA14454FEA114724EA054621EA5A
:10158000074C05FB07F406FB07F70CFB06F105FB10
:101590000CFC11EB074144EB17444FEA124711EBE7
:1015A0000C4144EB1C4422EA074C05FB07F206FB06
:1015B00007F70CFB06F605FB0CFC16EB074642EBA7
:1015C000174216EB0C4642EB1C456A1854F1000119
:1015D00048BF7047B619524141EB0101A3F1010325
:1015E000704795F0000F37D04FEA11424FEA144789
:1015F00021EA024624EA074C02FB07F106FB07F743
:101600000CFB06F402FB0CFC14EB074441EB174106
:101610004FEA154714EB0C4441EB1C4125EA074CFB
:1016200002FB07F506FB07F70CFB06F602FB0CFCBA
:1016300016EB074645EB174516EB0C4645EB1C42EF
:10164000121951F1000148BF7047B619524141EBE0
:101650000101A3F1010370474FEA14454FEA114716
:1016600024EA054621EA074C05FB07F106FB07F7CC
:101670000CFB06F24FF0000605FB0CFC12EB0742D8
:1016800041EB174112EB0C4251EB1C4148BF704734
:10169000921841EB0101A3F10103704700BFFEE77F
:1016A00070470EB500F01AFB0121084600F082FEDB
:1016B0000021084600F0F4F80120019000208DF888
:1016C00008000C208DF8090001208DF80A0001A8FF
:1016D00000F09CF806208DF800008DF80100002035
:1016E0008DF8020001208DF80300684600F010FE1E
:1016F0000D21022000F0D4F84FF40050019000209A
:101700008DF808000C208DF8090001208DF80A00E2
:1017100001A800F07BF828208DF8000007208DF844
:10172000010000208DF8020001208DF803006846BA
:1017300000F0EEFD0EBD000010B5142001F096FA89
:1017400001210D4800F057F988B90C48006803F0F2
:10175000CBFD04460AA0FEF7B9FD012C07D134B138
:1017600020070D490860BFF34F8FBFF36F8F012033
:1017700000F046F810BD00000008014018000020ED
:10178000BBD6B8B4C8CECEF14C454431B5C4D4CBE9
:10179000D0D0210D0A00000004ED00E010B51420A7
:1017A00001F064FA01210D4800F025F988B90C48D0
:1017B000006803F099FD04460AA0FEF787FD012C9E
:1017C00007D134B120070D490860BFF34F8FBFF335
:1017D0006F8F4FF4005000F013F810BD0008014067
:1017E00014000020BBD6B8B4C8CECEF14C4544306E
:1017F000B5C4D4CBD0D0210D0A00000004ED00E028
:101800000149086070470000140401400021234989
:101810008279002A3AD00A46126803689A430B4636
:101820001A600A1D126803689A430B1D1A60027938
:1018300011440A6803681A430A60184A0832126899
:1018400003689A43154B08331A601A1D126803681F
:101850009A43124B0C331A604279102A0ED11A1F88
:10186000126803681A430D4B08331A601A1D126878
:1018700003681A43094B0C331A600DE0074942799B
:1018800011440A6803681A430A6005E002791144AA
:101890000A6803689A430A60704700000004014028
:1018A00030B500228B071C0F0F2303FA04F20B4BF9
:1018B0008C1053F824309343084C8D1044F8253095
:1018C00023468C1053F824308C07240F00FA04F4BC
:1018D0002343024C8D1044F8253030BD08000140F0
:1018E0002DE9F041024600250026002000230024B7
:1018F000002791F803C00CF00F0591F803C00CF01D
:10190000100CBCF1000F03D091F802C04CEA0505A1
:1019100091F800C0BCF1000F31D0146800202BE01A
:101920004FF0010C0CFA00F3B1F800C00CEA03060A
:101930009E4220D183004FF00F0C0CFA03F7BC43FA
:1019400005FA03FC4CEA040491F803C0BCF1280F2B
:1019500006D14FF0010C0CFA00FCC2F814C00AE0EA
:1019600091F803C0BCF1480F05D14FF0010C0CFAFF
:1019700000FCC2F810C0401C0828D1D31460B1F894
:1019800000C0BCF1FF0F34DD546800202EE000F1F0
:10199000080C4FF0010808FA0CF3B1F800C00CEA8B
:1019A00003069E4221D183004FF00F0C0CFA03F77F
:1019B000BC4305FA03FC4CEA040491F803C0BCF1F3
:1019C000280F05D100F1080C08FA0CF8C2F81480B1
:1019D00091F803C0BCF1480F07D100F1080C4FF09B
:1019E000010808FA0CF8C2F81080401C0828CED371
:1019F0005460BDE8F0810246002093680B400BB1B3
:101A0000012000E00020704741617047016170478C
:101A100000BFFEE710B500200F4908600F480068BE
:101A200020F070600D4908600846006840F0407082
:101A3000086000200A49C1F8B8010F2001F0F2F84F
:101A40000120054908600F2001F0ECF8002004494E
:101A5000C1F8B40110BD0000B4812142040C014062
:101A60000080214208B50121082000F0A3FC4FF4BA
:101A7000C040ADF8000014208DF8030003208DF85D
:101A8000020069460448FFF72BFF4FF4C0410248AB
:101A9000FFF7BCFF08BD0000000C014010B500209E
:101AA0000F4908600F48006820F070600D49086019
:101AB0000846006840F04070086001200A49C1F8FB
:101AC000B8010F2001F0AEF80120054908600F2091
:101AD00001F0A8F800200449C1F8B40110BD0000CD
:101AE000B4812142040C01400080214270B50546BA
:101AF00000241848006820F0706016490860084605
:101B0000006840F000600860002616E000201249DE
:101B10000860322001F086F801201049C1F8B401B4
:101B2000322001F07FF86006040E0B487C38006814
:101B300008B1601CC4B2701CC6B2082EE6DB0020DF
:101B40000549086015B9FFF7A9FF01E0FFF762FF3B
:101B5000204670BD040C0140B48121420080214226
:101B600070B504461748006820F070601549086099
:101B70000846006840F04070086000201249086084
:101B8000002519E0002010490860E00918B1012083
:101B9000091D086003E000200B49091D086060066C
:101BA000040E0F2001F03EF80120074908600F20C5
:101BB00001F038F8681CC5B2082DE3DB00200249AB
:101BC000086070BD040C0140B481214210B50F487B
:101BD000006820F070600D4908600846006840F019
:101BE0004070086001200A4908600A49C1F8B40140
:101BF0000E2001F017F80020054908600E2001F0C2
:101C000011F800200349C1F8B40110BD040C0140D3
:101C1000B88121420080214210B50F48006820F0B1
:101C200070600D4908600846006840F04070086028
:101C300000200A4908600A49C1F8B8010E2000F0E6
:101C4000F1FF0120054908600E2000F0EBFF0120A4
:101C50000349C1F8B80110BD040C0140B481214210
:101C60000080214210B5002400201949086001209D
:101C70001849C1F8B8011848006820F0706016498A
:101C800008600846006840F0006008600E2000F020
:101C9000C9FF01200E4908600E2000F0C3FF0AE0D2
:101CA000601CC4B2FA2C03DDFFF7B6FF012010BDA3
:101CB000012000F0B7FF06487C3800680028EFD10B
:101CC000034908600A2000F0ADFF0020EFE70000A4
:101CD000B481214200802142040C014008B5012159
:101CE000142000F067FB4FF40050ADF800002820EE
:101CF0008DF8030003208DF8020069460C48FFF7B9
:101D0000EFFD4FF400510A48FFF780FE0120ADF8C7
:101D1000000028208DF8030003208DF8020069469A
:101D20000448FFF7DDFD01210248FFF76FFE08BD03
:101D30000010014000080140F0B5059D00242A264E
:101D40004FF0C0473E800612154F3E80C6B23E801F
:101D50008618761EC6F30F263E808618761EF6B2CB
:101D60003E802B2677073E800E120D4F3E80CEB26E
:101D70003E80CE18761EC6F30F263E80CE18761E05
:101D8000F6B23E802C26F7063E8000BF02E0044EED
:101D90003580641C02FB03F6A642F8D8F0BD0000B3
:101DA000000002602DE9F04F81468A4615461E4626
:101DB000A5F120001FFA80FB0C230622514648465D
:101DC00000F0AAF82C20C106088000241AE00BEBD2
:101DD0004B000E4901EB800010F8048000270DE055
:101DE00008F0010010B10A48068003E047F6FF70D2
:101DF000074908804FEA6808781C87B2062FEFDB96
:101E0000601C84B20C2CE2DBBDE8F08FF4580008B3
:101E100000000260F0B505460E4614461F4613E06A
:101E2000EA2D03DD002506F10C0086B2B6F59A7F97
:101E300001DD0025002622783B4631462846FFF783
:101E4000B1FFA81D85B2641C20780028E8D1F0BD40
:101E500008B50121080200F09DFA0121682000F078
:101E6000A9FA10208DF8030003208DF8020002204B
:101E7000ADF8000069462148FFF732FD0220ADF8B9
:101E8000000069461E48FFF72BFD03208DF8020075
:101E900018208DF803004CF20370ADF8000069467D
:101EA0001848FFF71DFD4FF68070ADF80000694639
:101EB0001348FFF715FD1020ADF8000069461148E2
:101EC000FFF70EFD2020ADF8000069460D48FFF732
:101ED00007FD8020ADF8000069460A48FFF700FDC5
:101EE0004FF40060ADF8000069460648FFF7F8FCC3
:101EF00002210248FFF788FD08BD0000000C0140E8
:101F0000001801400014014010B5FFF7A1FF00F0D8
:101F10001FF900F029F810BD30B52A244FF0C04554
:101F20002C8004120F4D2C80C4B22C808418641EA7
:101F3000C4F30F242C808418641EE4B22C802B245C
:101F400065072C800C12074D2C80CCB22C80CC184D
:101F5000641EC4F30F242C80CC18641EE4B22C80C1
:101F600030BD00000000026000B5CF204FF0C0413E
:101F70000880002074490880812008803020088073
:101F8000ED204FF0C041088064206F490880032095
:101F900008801220088081200880E8204FF0C0418E
:101FA00008808520684908801020088078200880F3
:101FB000CB20410708803920634908802C20088005
:101FC000002008803420088002200880F7204FF08D
:101FD000C041088020205C490880EA204FF0C041C1
:101FE00008800020584908800880B1204FF0C04187
:101FF00008800020544908801B200880B620010773
:1020000008800A2050490880A2200880C020C1050D
:10201000088035204C490880C1204FF0C04108801D
:10202000112049490880C5204FF0C0410880452053
:10203000454908800880C7204FF0C0410880A22091
:1020400041490880F2204FF0C041088000203E49FD
:10205000088026200107088001203B490880E020F5
:102060004FF0C04108800F203749088026200880A3
:10207000242008800B2008800E200880092008807A
:1020800054200880A8200880462008800C20088062
:1020900017200880092008800F200880072008806A
:1020A00000200880E1204FF0C04108800020264930
:1020B0000880192008801B20088004200880102038
:1020C0000880072008802A200880472008803920BF
:1020D00008800320088006200880088030200880BF
:1020E000382008800F200880362001070880C8208B
:1020F000154908802A204FF0C0410880002012496D
:10210000088008800880EF2008802B204107088085
:1021100000200D4908800880012008803F200880A9
:102120003A204FF0C041088055200749088011200F
:102130004FF0C0410880054800F0DEF829204FF03C
:10214000C041088000BD000000000260FCBF02002A
:1021500010B502210648FFF757FC064800F0CCF8FE
:1021600002210348FFF752FC024800F0C5F810BDF9
:1021700000180140FCBF020086B053E02A48006806
:10218000002824D00023012201A92748006802F07A
:1021900069FB0446642001F0F3FF012C1DD123A04C
:1021A000FEF794F80199086803F0ACF905462A4651
:1021B0000B4626A0FEF78AF80199486803F0A2F9B9
:1021C00005462A460B4629A0FEF780F805E0502078
:1021D00001F0D6FF2CA0FEF779F80199086803F00A
:1021E00091F905462A460B462EA104A8FEF77AF877
:1021F0004FF4784304AA3C215520FFF70BFE0199C8
:10220000486803F07FF905462A460B4625A102A837
:10221000FEF768F84FF4784302AA4B213C20FFF701
:10222000F9FD00BFAAE700002400002047657420E4
:10223000546865204D6173736167652053756363EE
:1022400065737366756C210D0A0000005468652083
:1022500054656D707465725F56616C756520497365
:10226000203D25332E3166210D0A0000546865207B
:1022700048756D695F56616C7565204973203D2511
:10228000332E3166210D0A0047657420546865209D
:102290004D617373616765204661696C6564210DEA
:1022A0000A00000025332E316600000008B5012128
:1022B000182000F07FF81820ADF8000010208DF8ED
:1022C000030003208DF8020069460948FFF708FB68
:1022D00018210748FFF79AFB0120ADF80000694676
:1022E0000448FFF7FDFA01210248FFF78FFB08BD04
:1022F00000100140000C014001B502E00098401EB2
:10230000009000980028F9D108BD00BFFEE7704793
:1023100070B5002100230F22C47804B3154C246843
:1023200004F4E064C4F5E064210AC1F10403CA4086
:10233000447804FA03F184781440214309010E4CD7
:102340000678A155047804F01F050124AC400578F7
:102350006D11AD0005F1E025C5F8004109E00478F4
:1023600004F01F050124AC40044D0678761145F8B1
:10237000264070BD0CED00E000E400E080E100E0EC
:1023800002490143024A1160704700000000FA054B
:102390000CED00E029B1064A52690243044B5A6130
:1023A00004E0034A52698243014B5A6170470000BE
:1023B0000010024029B1064A92690243044B9A6117
:1023C00004E0034A92698243014B9A61704700001E
:1023D0000010024030B500210022002400232D4DC2
:1023E0006D6805F00C0121B1042905D0082923D11D
:1023F00005E0294D056022E0274D05601FE0254DD1
:102400006D6805F47012234D6D6805F48034022563
:1024100005EB92421CB9214D554305600BE01D4D63
:102420006D6805F400351DB11C4D5543056002E093
:10243000194D5543056002E0174D056000BF00BF10
:10244000144D6D6805F0F0010909154D6B5C0568C8
:10245000DD4045600F4D6D6805F4E061090A104DDF
:102460006B5C4568DD4085600A4D6D6805F4605120
:10247000C90A0B4D6B5C4568DD40C560054D6D6854
:1024800005F44041890B074D6B5CC568B5FBF3F55E
:10249000056130BD0010024000127A0000093D00C5
:1024A0003C0000204C0000202DE9FC5F4FF0000BA9
:1024B000FFF78CFBB820FFF753FBFFF7D3FB002897
:1024C0006BD10024FFF74CFB06E0601C80B2044691
:1024D000B0F5FA7F00DB03E0FFF7C4FB0028F4D17E
:1024E00000BF0024FFF772FBB920FFF739FB06E0BD
:1024F000601C80B20446B0F5FA7F00DB03E0FFF712
:10250000B1FB0028F4D100BF0120FFF7EFFA054628
:102510000120FFF7EBFA06460120FFF7E7FA07462E
:102520000120FFF7E3FA80460020FFF7DFFA81463B
:10253000FFF772FBA8193844404400F0FF0AD14568
:1025400026D105EB850106EB410003F009F983462E
:102550001449584603F09BF901D2DFF848B01249FC
:10256000584603F015F901D2DFF83CB00F49584640
:1025700003F000F88346584602F0C4FF02460B46BB
:10258000CDE900010AA0FDF7A1FE5846BDE8FC9F79
:102590000DA0FDF79BFE0020F8E70FA0FDF796FECB
:1025A0000020F3E700806D44000048430000204114
:1025B000CAAAB6C8CEAA3A2020252E3166202025E8
:1025C0002552480D0A000000435243204572726FA5
:1025D000722021210D0A000053656E736F72204531
:1025E00072726F722021210D0A0000002DE9FC5F3C
:1025F0004FF0000BFFF7EAFAB820FFF7B1FAFFF748
:1026000031FB00287BD10026FFF7AAFA06E0701CF8
:1026100080B20646B0F5FA7F00DB03E0FFF722FB4D
:102620000028F4D100BF0026FFF7D0FAB920FFF749
:1026300097FA06E0701C80B20646B0F5FA7F00DB20
:1026400003E0FFF70FFB0028F4D100BF0120FFF7E4
:102650004DFA07460120FFF749FA80460120FFF7AF
:1026600045FA05460120FFF741FA04460020FFF72E
:102670003DFA8146FFF7D0FA07EB080028442044D2
:1026800000F0FF0AD14535D104F0800050B104F0CC
:102690007F0105EB850201EB4201484203F060F83F
:1026A000834606E005EB850104EB410003F058F892
:1026B00083461549584603F0EAF801D2DFF848B0DE
:1026C0001249584603F064F801D2DFF840B01049CF
:1026D000584602F04FFF8346584602F013FF024669
:1026E0000B46CDE900010BA0FDF7F0FD5846BDE813
:1026F000FC9F04E00DA0FDF7E9FD0020F7E70FA027
:10270000FDF7E4FD0020F2E700001644000048C396
:10271000000020410D0ACEC2B6C8CEAA3A2020251C
:102720002E31662020A1E60D0A000000435243200E
:102730004572726F722021210D0A000053656E737D
:102740006F72204572726F722021210D0A00000005
:1027500010B500F001F810BD0CB5002001900090FC
:102760003348006840F480303149086000BF304889
:10277000006800F4003000900198401C019000981F
:1027800018B90198B0F5A06FF1D12948006800F49C
:10279000003010B10120009001E00020009000986E
:1027A000012843D12348006840F010002149086007
:1027B0000846006820F0030008600846006840F002
:1027C000020008601A484068194948600846406895
:1027D00048600846406840F48060486008464068A9
:1027E00020F47C1048600846406840F4E8104860D7
:1027F0000846006840F08070086000BF0C48006820
:1028000000F000700028F9D00948406820F003006B
:10281000074948600846406840F00200486000BF31
:102820000348406800F00C000828F9D10CBD0000F6
:102830000010024000200240042808D14FF0E0219F
:10284000096941F004014FF0E022116107E04FF007
:10285000E021096921F004014FF0E0221161704785
:1028600010B502F025FB012801D001F0A7FF10BD33
:1028700010B51348006840F001001149086008468F
:102880004068104908400E494860084600680E49F3
:1028900008400B4908600846006820F48020086062
:1028A0000846406820F4FE0048604FF41F0088602E
:1028B000FFF74EFF4FF000600449086010BD0000B4
:1028C000001002400000FFF8FFFFF6FE08ED00E0F8
:1028D00010B50121064800F036F8012802D105A004
:1028E000FDF7F4FC0121024800F02AF810BD0000B9
:1028F0000004004054494D33CAE4B3F62E2E2E2E68
:102900002E2E2E0D0A00000010B50121064800F001
:102910001AF8012802D105A0FDF7D8FC01210248D0
:1029200000F00EF810BD0000000C004054494D3579
:10293000CAE4B3F62E2E2E2E2E2E2E0D0A000000E7
:10294000CA430282704730B50246002000230024AB
:10295000158A05EA0103958905EA010413B10CB152
:10296000012000E0002030BD10B540F225511D4887
:1029700000F04AF810B31B4800F002F9C4B21A483C
:10298000008800F40040C8B91748008800F480406F
:1029900060B10A2C03D000201349088020E01248BF
:1029A000008840F400401049088019E00D2C06D141
:1029B0000D48008840F480400B49088010E00A4828
:1029C0000088C0F30D0009490C5407480088401CDA
:1029D0000549088008460088C72801DD00200880D6
:1029E00010BD00000038014008000020C400002095
:1029F00021B1828942F40052828104E082894DF63D
:102A0000FF731A408281704770B50246002400238C
:102A10000025002040F66A16B14200D100BFC1F384
:102A2000421501F01F03012606FA03F3012D02D11E
:102A30009689334006E0022D02D1168A334001E028
:102A4000968A33400C12012606FA04F416883440A4
:102A500013B10CB1012000E0002070BDF0B50346B9
:102A6000002400260025002040F66A17B94200D154
:102A700000BF1846C1F3421401F01F06012707FAF0
:102A800006F5012C01D10C3004E0022C01D11030EC
:102A900000E014301AB107682F43076002E00768AE
:102AA000AF430760F0BD00002DE9F04786B0054652
:102AB0000E460024A24600BFA1460027B08900B1FF
:102AC00000BF2F462C8A4CF6FF700440F088044368
:102AD0002C82AC894EF6F3100440B088318908434B
:102AE000718908430443AC81AC8A4FF6FF4004402F
:102AF000B0890443AC8201A8FFF76CFC1F488742F1
:102B000002D1DDF810A001E0DDF80CA0A88900F4E6
:102B1000004040B10AEBCA0000EB0A1031684900DE
:102B2000B0FBF1F807E00AEBCA0000EB0A103168CD
:102B30008900B0FBF1F86420B8FBF0F00401200933
:102B4000642101FB1089A88900F4004040B13220C3
:102B500000EBC900B0FBF1F000F00700044308E00F
:102B6000322000EB09106421B0FBF1F000F00F00FF
:102B700004432C8106B0BDE8F08700000038014016
:102B800001468888C0F30800704700BFFEE749008F
:102B900050EAC12018BF04204A0D18BF40F00100C0
:102BA00040F2FF72B2EB515F08BF40F00200012813
:102BB00008BF0520704730380A2801D2012070472D
:102BC0000020704700BF704710B50420FFF734FEA7
:102BD000104800681049B0FBF1F0104908700D482A
:102BE00000680D49B0FBF1F44FF47A7044430120C2
:102BF0000B4908804FF0E020006940F002004FF0E0
:102C0000E021086108464461006940F00100086164
:102C100010BD00002800002040420F0000000020EE
:102C20000200002070B5034600224FF0E0267569CF
:102C30000D4E367803FB06F44FF0E026B16910E044
:102C40004FF0E026B06988420BD0884202D20E1ABB
:102C5000324402E02E1A0E4432440146A24200D30E
:102C600000E0EDE700BF70BD0000002030B5044675
:102C7000002504E04FF47A70FFF7D4FF6D1CA542E5
:102C8000F8D330BD00BF054A128802F04002002A86
:102C9000F9D0C2B2014B1B1D1A80704700380140A9
:102CA000002416E00B480068C0430B49C1F88C01B2
:102CB000142001F065FA09A0FDF708FB641CC82C7C
:102CC00007DB00240BA0FDF701FB0E48006801F0B4
:102CD00049FCE7E78C0122420000224274686973D4
:102CE000206973206C656430207461736B210D0A58
:102CF000000000004C454432C8CECEF1B9D2C6F037
:102D0000210D0A0018000020002419E000200D49C0
:102D100008600A2001F034FA01200B49C1F8900143
:102D20001E2001F02DFA09A0FDF7D0FA641C3C2CFE
:102D300006DB00240BA0FDF7C9FA002001F012FC0D
:102D4000E4E70000900122420000224274686973A7
:102D5000206973206C656431207461736B210D0AE6
:102D6000000000004C454431C8CECEF1B9D2C6F0C7
:102D7000210D0A000FE0002007490860142001F02F
:102D8000FFF901200549C1F88001282001F0F8F978
:102D900003A0FDF79BFAEEE78081214200802142EB
:102DA00074686973206973206C6564322074617380
:102DB0006B210D0A000000001CB54FF44070FFF7B6
:102DC000DFFAFFF701FF4FF4E13000F0CBFFFFF730
:102DD0006DFAFEF783FFFEF745FEFEF762FCFFF794
:102DE00093F847F6FF704FF4A073F0220021009093
:102DF0000846FEF7A1FF4FF4784310A23C211420AF
:102E0000FFF708F84FF478430FA24B211420FFF787
:102E100001F84FF478430EA20A210846FEF7FAFFA4
:102E20001448012100238022CDE9001012A1154889
:102E300002F00EF801F040FB00201CBD54656D70DF
:102E40007261747572653A0048756D693A000000E8
:102E5000546869732069732061206C636420646521
:102E60006D6F20746F20646973706C617920617379
:102E7000636969000C00002073746172745F74618F
:102E8000736B0000893B00082DE9F04105460E46B2
:102E90001C4807681C480068001D00F0B3FF50B9CB
:102EA0001948006890F82C100120884017490968DB
:102EB000814316480160681C38B936B11248016870
:102EC000091D134800F0DCFF1AE07C190E48006869
:102ED0004460BC4207D20C480168091D0D480068D7
:102EE00000F0B4FF0CE008480168091D0A480068BA
:102EF00000F0ACFF09480068844201D20748046032
:102F0000BDE8F0816400002050000020680000202F
:102F10009C04002058000020540000208000002065
:102F200010B5044600F0B8FF24480068401C23494F
:102F300008602348006840B92148046008460068DA
:102F400001280DD100F0EEF90AE01E48006838B9FA
:102F50001B480068C06AE16A884201D818480460CA
:102F600019480068401C18490860084600686064F9
:102F700094F82C100120884014490968084313492B
:102F80000860E16A01EB8101114A02EB8100211D19
:102F900000F076FF00F0C4FF0A48006868B10848F6
:102FA0000068C06AE16A884207D24FF08050094940
:102FB0000860BFF34F8FBFF36F8F10BD600000201C
:102FC000500000206C0000207C00002068000020E1
:102FD000CC01002004ED00E010B500F05DFF1048CA
:102FE0000068D0B90F4800F021FF0F4800F01EFF25
:102FF0000C480E4908600C480D4908600022102159
:10300000052001F0F5FB064908600846006820B17C
:1030100008A10348006801F077F800F081FF10BDB7
:1030200094000020B0040020C40400208C00002084
:1030300090000020546D72510000000070B523E034
:1030400001F010FB1348006808B9012000E00020DF
:10305000054602F0B9F8BDB900F01EFF0D48C06882
:10306000C468201D00F0CEFE0B480068401E0A49CF
:1030700008600A480068401E0849086000F050FFD8
:10308000204600F060F800BF044800680028D7D14F
:1030900070BD000088040020600000205C0000205B
:1030A00070B504460D46206C70B1216CE068084490
:1030B000E0606168E068884201D32068E0602846EB
:1030C000226CE168FDF735FA70BD2DE9F041044648
:1030D0000F4615464FF00008A66B206C40B92068DB
:1030E00060BB606801F0AAFF80460020606025E0B8
:1030F0007DB93946226CA068FDF71BFA216CA068E7
:103100000844A060D4E90110884217D32068A06069
:1031100014E03946226CE068FDF70BFA216CE06898
:10312000401AE0602168E068884203D2216C606840
:10313000401AE060022D01D106B1761E701CA0631A
:103140004046BDE8F08110B50446206B00F020FF3A
:10315000204600F01DFF10BD0146084A12681268A3
:103160000AB9012200E000220A600A6822B9034A73
:103170001268D268106800E0002070478C000020C0
:1031800030B54FF4A043174800F007042CB1C01D20
:1031900020F00700134C041B1B1B0246124C22603C
:1031A0000024114D6C60D018083820F007000F4C37
:1031B000206000240D4D2D686C600C4D2D682C6036
:1031C0001146441A4C60094C24680C60084D4C6848
:1031D0002C60084D4C682C604FF00044064D2C606C
:1031E00030BD0000D8040020A0000020A80000206E
:1031F000B0000020AC000020B400002000BFFFF7AA
:103200001DFF064800680128F9D94FF08050044995
:103210000860BFF34F8FBFF36F8FF0E7CC01002042
:1032200004ED00E02DE9F04106460D4617469846AC
:10323000069C0DB9246000E02760E6632564012147
:10324000204601F0F3FB84F850800020A064BDE824
:10325000F08100002DE9F05F82460F4690469B46C4
:103260000A9E0C9C4FEA8801A522206BFDF7A6F967
:10327000A8F10100216B01EB800929F0070909F091
:10328000070008B9012000E0002028B940F22B32E5
:103290001BA120A0FDF71AF8002507E0795D04F1D5
:1032A00034004155785D00B902E06D1C102DF5D356
:1032B00000BF002143200155202E00D31F26E662C7
:1032C000E66400202065201D00F0BDFD04F118001B
:1032D00000F0B9FD2461C6F12000A0616462002005
:1032E000606584F858005A465146484600F03AFC5A
:1032F00020600B9808B10B980460BDE8F09F0000B7
:103300002E2E5C46726565524F54535C7461736B2C
:10331000732E63004572726F723A25732C25640D0B
:103320000A00000010B5002407E004EB84010F4AF6
:1033300002EB810000F07AFD641C202CF5D30C48D0
:1033400000F074FD0B4800F071FD0B4800F06EFDBD
:103350000A4800F06BFD0A4800F068FD044809497E
:10336000086004480849086010BD0000CC01002036
:103370004C04002060040020740400208804002015
:103380009C040020540000205800002010B5014685
:10339000164800E0006803688B42FBD3024643688E
:1033A00013448B4204D143684C6823444360014674
:1033B0000A464B6813440468A34211D10C4C0368BD
:1033C0002468A34208D04B680468646823444B60B7
:1033D00003681B680B6005E0054B1B680B6001E090
:1033E00003680B60884200D0016010BDA00000207F
:1033F000A80000202DE9F04104460D4616461F4660
:103400004FF0000865602461B5420CD8F01BA1693B
:10341000884202D34FF0010811E0211D09480068DD
:1034200000F014FD0BE0BE4204D2BD4202D34FF0C7
:10343000010804E0211D0448006800F007FD404633
:10344000BDE8F081900000208C00002070B505469A
:1034500000F022FDA86B08B9012400E0002400F070
:103460005FFD204670BD70B5054600F015FDA86BE8
:10347000E96B884201D1012400E0002400F050FDF6
:10348000204670BD2DE9F3410D460098846C00275D
:103490002CB940F6CE121AA11EA0FCF717FFA06BA4
:1034A000E16B884201D2012000E0002028B940F6FB
:1034B000CF1213A117A0FCF709FFA06BE16B8842A4
:1034C0001BD294F945602A4669462046FFF7FDFD68
:1034D0000746701C60B9606A08B9012000E000204E
:1034E00050B904F1240001F015FE28B1012703E0D2
:1034F000701C40B284F8450000BF3846BDE8FC812E
:103500002E2E5C46726565524F54535C717565751D
:10351000652E63004572726F723A25732C25640D17
:103520000A000000F8B505460F4613480068C06859
:10353000C468201D00F066FCE069012818D1A0696C
:1035400041192B463A462046FFF754FF80B1002030
:1035500003462A4601460090204601F065FF0646D4
:103560002EB94FF4027205A10AA0FCF7AFFE00BF0E
:103570002046616A8847F8BD8C0000202E2E5C46EC
:10358000726565524F54535C74696D6572732E6336
:10359000000000004572726F723A25732C25640D8D
:1035A0000A000000F0B587B070E0039800280CDA3C
:1035B00004AE2EB940F2E7223AA140A0FCF786FE05
:1035C000D6E90020B168904700BF039800285DDB72
:1035D000059C606908B9012000E0002010B9201D99
:1035E00000F010FC02A800F0C7F8054603980A286E
:1035F0004AD2DFE800F00905072C2E4506082D2FDA
:1036000000BF00BF00BF00BF0498A2698118034635
:103610002A462046FFF7EEFEC0B12046616A884781
:10362000E069012812D1002000900498A169421895
:1036300000231946204601F0F7FE07462FB940F255
:10364000213218A11DA0FCF741FE00BF1DE000BF04
:103650001BE000BF0498A061A06908B1012000E050
:10366000002028B94FF44E720EA114A0FCF72EFED4
:10367000A06941192B462A462046FFF7BBFE04E00D
:10368000204600F085FC00E000BF00BF00231A4682
:1036900003A90E48006801F0E5F8002885D107B0BD
:1036A000F0BD00002E2E5C46726565524F54535C8F
:1036B00074696D6572732E63000000004572726F4D
:1036C000723A25732C25640D0A0000009400002036
:1036D000F8B505460C4600F0C5FF684600F04CF80A
:1036E0000646009820BB44B9B54206D801F06CFDEF
:1036F00031462846FFF716FF1CE03CB10E48006833
:10370000006808B9012000E000200446A91B2246F9
:103710000A48006800F00EFD01F056FD50B94FF068
:10372000805007490860BFF34F8FBFF36F8F01E0F0
:1037300001F04AFDF8BD0000900000209400002038
:1037400004ED00E00A490968096809B9012100E0AF
:10375000002121B14FF0FF31064A116006E0044913
:103760000968C968C868034A416811607047000069
:10377000540000208000002070B5044601F0A8FB32
:10378000054607480068854204D200F00BF8012086
:10379000206001E00020206001480560284670BDDF
:1037A0009C0000202DE9F8432DE021480068C06806
:1037B00005681F480068C068C468201D00F022FB2F
:1037C0002046616A8847E06901281CD1A069461932
:1037D000AE4207D966602461211D1548006800F0DB
:1037E00035FB10E0002003462A46014600902046A3
:1037F00001F01AFE07462FB940F292320DA113A034
:10380000FCF764FD00BF0A480068006808B90120A1
:1038100000E000200028C8D00548D0F800800F48FC
:103820000068034908600D48C0F80080BDE8F883CF
:103830008C0000202E2E5C46726565524F54535CFE
:1038400074696D6572732E63000000004572726FBB
:10385000723A25732C25640D0A00000090000020A8
:103860000B480068401C08B9012000E0002020B986
:10387000F42208A112A0FCF729FD00BF502080F31C
:103880001188BFF34F8FBFF36F8F00BF00BFFEE7FC
:10389000B80000202E2E5C46726565524F54535C72
:1038A000706F727461626C655C525644535C415235
:1038B0004D5F434D335C706F72742E6300000000E7
:1038C0004572726F723A25732C25640D0A00000050
:1038D00070B5054600262C462DB940F281620EA136
:1038E00012A0FCF7F3FC15496069884201D1012060
:1038F00000E0002070B11249A06A884201D1012085
:1039000000E0002030B9A06A08B9012000E00020E2
:1039100000B10126304670BD2E2E5C4672656552A0
:103920004F54535C7461736B732E63004572726FF6
:10393000723A25732C25640D0A0000009C040020B7
:103940007404002008B500BF6846FFF705FC044674
:1039500020460099FFF7BCFEFFF724FEF4E770B5A0
:10396000044600F099FA94F945501AE0A06C38B179
:1039700000212046FFF786FD88B100F0C1FC0EE073
:10398000606A08B9012000E0002038B904F1240081
:1039900001F0C0FB18B100F0B3FC00E003E0681ECA
:1039A00045B2002DE2DC00BFFF2084F8450000F0A6
:1039B000B7FA00F071FA94F9445010E0206908B9A0
:1039C000012000E0002048B904F1100001F0A2FB42
:1039D00008B100F095FC681E45B200E001E0002D42
:1039E000ECDC00BFFF2084F8440000F099FA70BDC1
:1039F0002DE9F04104464FF0000800F033FE3E4848
:103A0000006808B9FFF7BCFB3C480068204000286C
:103A10005FD1A4B1083404F0070080B104F00700BE
:103A2000C0F10800044404F0070008B9012000E0D8
:103A3000002020B9BF2232A13BA0FCF747FC002C9C
:103A400047D03D480068844243D83C4E3046056824
:103A500001E02E462D686868A04202D2286800283E
:103A6000F7D125480068854233D0306800F1080856
:103A7000286830606868001B102813D92F1907F0D8
:103A8000070008B9012000E0002020B9EC221CA1A9
:103A900025A0FCF71BFC6868001B78606C6038464A
:103AA000FFF774FC244968680968081A224908600D
:103AB0000846006822490968884203D21E48006807
:103AC0001F4908600D49686809680843686000205C
:103AD000286001F079FB08F0070008B9012000E038
:103AE000002028B94FF4967205A10FA0FCF7EEFB59
:103AF0004046BDE8F0810000A8000020B40000208E
:103B00002E2E5C46726565524F54535C706F727412
:103B100061626C655C4D656D4D616E675C68656189
:103B2000705F342E630000004572726F723A257325
:103B30002C25640D0A000000AC000020A00000202D
:103B4000B00000200648006830B10549096801F15D
:103B50005000096D491C0160014800687047000071
:103B600050000020001F4FF080730360001F21F001
:103B700001030360001F034B036014380260203808
:103B800070470000613800081CB5044600F084F955
:103B900000220421022000F02BFE21490860084683
:103BA000006810B91FA0FCF791FB244802210023F4
:103BB0003222CDE9001022A1244801F049F924481D
:103BC000032100233222CDE9001022A1244801F074
:103BD0003FF92448042100233222CDE9001022A11C
:103BE000244801F035F92448052100239622CDE927
:103BF000001022A1244801F02BF9244806210023BB
:103C00004FF48072CDE9001021A1264801F020F97F
:103C10002548006800F0EEFA00F082F91CBD0000B3
:103C2000240000204372656174205175657565201C
:103C30004661696C6564210D0A00000010000020D7
:103C40006C6564305F7461736B000000A12C000828
:103C5000140000206C6564315F7461736B000000B8
:103C6000092D0008180000206C6564325F746173D0
:103C70006B000000752D00081C0000204C43445FC1
:103C80007461736B0000000079210008200000209F
:103C900074656D70657261747572655F7461736B64
:103CA00000000000AD3C00080C0000200EB536E01E
:103CB000FEF79CFC0446FEF7F7FB05461848006833
:103CC00000282CD00021204601F016FD27D00194B9
:103CD000029501A8009000230A2269461048006856
:103CE00000F0FCFE06464FF47A7000F049FA0198A5
:103CF00001F008FC07463A460B460AA0FCF7E6FA34
:103D0000029801F0FFFB07463A460B460BA0FCF772
:103D1000DDFA012E02D00FA0FCF7D8FA00BFC7E7EA
:103D2000240000205445482054454D50204953203C
:103D30003D2025332E31660D0A00000054454820F1
:103D400048554E49204953203D2025332E31660DDC
:103D50000A000000B6D3C1D0B7A2CBCDCAA7B0DC51
:103D60000D0A000010B586B00446012144F204009B
:103D7000FEF720FB4FF40070ADF8140003208DF81F
:103D8000160018208DF8170005A91C48FDF7A8FD9E
:103D90004FF48060ADF8140004208DF8170005A9D9
:103DA0001648FDF79DFD25208DF8000003208DF8B5
:103DB00001008DF8020001208DF803006846FEF72F
:103DC000A7FA01940020ADF80800ADF80A00ADF89C
:103DD0000C00ADF810000C20ADF80E0001A9084849
:103DE000FEF762FE012240F225510548FEF736FE3D
:103DF00001210348FEF7FCFD06B010BD000801409C
:103E00000038014001460A69D1E901309860D1E9E2
:103E1000010358605068884201D1886850600020D2
:103E200008611068401E10601068704700F10801BA
:103E300041604FF0FF31816000F10801C160016114
:103E400000210160704700210161704710B50246F2
:103E50000B685C1C0CB9106907E002F1080000E077
:103E60004068446824689C42FAD944684C604C68B5
:103E7000A160886041600A611468641C146010BD10
:103E800042684A6093688B609368596091600861EA
:103E900003685B1C0360704710B500BF502080F3BF
:103EA0001188BFF34F8FBFF36F8F00BF0B480068BF
:103EB000401C0A4908600846006801280DD10848DE
:103EC0000068C0B208B9012000E0002028B94FF412
:103ED000BD7204A10EA0FCF7F9F910BDB8000020D6
:103EE00004ED00E02E2E5C46726565524F54535C23
:103EF000706F727461626C655C525644535C4152DF
:103F00004D5F434D335C706F72742E630000000090
:103F10004572726F723A25732C25640D0A000000F9
:103F200010B50B48006828B940F2811209A114A00D
:103F3000FCF7CCF906480068401E054908600846B1
:103F4000006820B9002080F3118800BF00BF10BDB9
:103F5000B80000202E2E5C46726565524F54535CAB
:103F6000706F727461626C655C525644535C41526E
:103F70004D5F434D335C706F72742E630000000020
:103F80004572726F723A25732C25640D0A00000089
:103F900070B506463546002E35D0083D2C461A49E8
:103FA00060680968084008B1012000E0002028B9D5
:103FB0004FF4A07215A11FA0FCF788F9206808B97A
:103FC000012000E0002028B940F241120FA119A001
:103FD000FCF77CF90C4960680968084098B12068D2
:103FE00088B90949606809688843606000F03AFB55
:103FF0001449606809680844124908602046FFF7C0
:10400000C5F901F0E1F870BDB40000202E2E5C4629
:10401000726565524F54535C706F727461626C6567
:104020005C4D656D4D616E675C686561705F342ED7
:10403000630000004572726F723A25732C25640D7F
:104040000A000000AC000020064800684FF47A71B6
:10405000B0FBF1F0401E4FF0E021486107200861FD
:10406000704700002800002070B5FCF709F90546EC
:10407000102D11D305F1E02090F8F043104800789E
:10408000844201DB012000E0002028B94FF42A72AD
:104090000CA117A0FCF71AF91948006800F4E060B9
:1040A00018490968884201D8012000E0002028B999
:1040B0004FF42E7203A10EA0FCF708F970BD0000AA
:1040C000BC0000202E2E5C46726565524F54535C36
:1040D000706F727461626C655C525644535C4152FD
:1040E0004D5F434D335C706F72742E6300000000AF
:1040F0004572726F723A25732C25640D0A00000018
:104100000CED00E0C0000020024600200BE0084B50
:1041100053F8303033B9064B43F8301003EBC0038B
:104120005A6002E0401C0828F1D300BF704700002D
:104130008C0100202DE9F04105460E4617462C461D
:10414000FFF7AAFE94F94400401C10B9002084F83F
:10415000440094F94500401C10B9002084F8450043
:10416000FFF7DEFEA06B28B93A46314604F1240081
:1041700000F0F6F82046FFF7F2FBBDE8F081000002
:1041800070B504460025ACB10F48006808B901209D
:1041900000E0002028B940F2CF420CA110A0FCF7AB
:1041A00095F800F05FFA00212046FEF76DFE01F061
:1041B0000BF805463DB94FF080500D490860BFF33C
:1041C0004F8FBFF36F8F70BD880000202E2E5C468E
:1041D000726565524F54535C7461736B732E630048
:1041E0004572726F723A25732C25640D0A00000027
:1041F00004ED00E070B50546FFF74EFE15B92D48F9
:10420000006800E028460446201DFFF7FBFD78B952
:10421000E06A00EB8000284951F8200040B994F88A
:104220002C100120884025490968814323480160FA
:10423000A06A18B104F11800FFF7E4FD20480068F7
:10424000401C1F4908601B480068844209D1211D99
:104250001C48FFF715FE1C480068401C1A490860FE
:1042600009E01A480068401E184908602046FEF719
:104270006AFFFFF767FAFFF753FE15480068C0B101
:104280000C480068844214D11248006808B9012023
:1042900000E0002028B940F265420FA113A0FCF70E
:1042A00015F84FF0805015490860BFF34F8FBFF3EA
:1042B0006F8F70BD50000020CC01002068000020EE
:1042C0007C000020880400205C00002060000020AA
:1042D0006C000020880000202E2E5C46726565521E
:1042E0004F54535C7461736B732E63004572726F2D
:1042F000723A25732C25640D0A00000004ED00E0DD
:1043000001200149086070477400002070B5044620
:104310000D462CB940F6063207A10CA0FBF7D6FFDC
:104320000E48016818312046FFF790FD012128460C
:10433000FEF7AAFD70BD00002E2E5C467265655228
:104340004F54535C7461736B732E63004572726FCC
:10435000723A25732C25640D0A00000050000020DD
:1043600070B505460E4614462DB940F6313209A106
:104370000DA0FBF7ABFF1048016818312846FFF786
:104380007FFD0CB14FF0FF3621463046FEF77CFD35
:1043900070BD00002E2E5C46726565524F54535C12
:1043A0007461736B732E63004572726F723A25737A
:1043B0002C25640D0A0000005000002070B5054651
:1043C0002C46002D4BD02649E06A0968C96A88420C
:1043D00045D2A06900F0004028B921480068C06AB1
:1043E000C0F12000A061E16A01EB81011D4A02EBEE
:1043F00081016069884201D1012000E0002050B3B2
:10440000201DFFF7FFFC78B9E06A00EB800015493A
:1044100051F8200040B994F82C100120884012492E
:1044200009688143104801600D480068C06AE06275
:1044300094F82C10012088400B49096808430A4968
:104440000860E16A01EB8101064A02EB8100211D4F
:10445000FFF716FD03E002480068C06AE06270BD25
:1044600050000020CC0100206800002010B5044658
:104470002CB940F6C13205A109A0FBF727FF0C4873
:10448000006820600B480068606010BD2E2E5C46FE
:10449000726565524F54535C7461736B732E630085
:1044A0004572726F723A25732C25640D0A00000064
:1044B00078000020640000201CB51A4800210B463B
:1044C0008222CDE9001018A1194800F0C1FC044671
:1044D000012C02D100F06EFF0446012C15D100BF63
:1044E000502080F31188BFF34F8FBFF36F8F00BF51
:1044F0004FF0FF300F49086001200F49086000208D
:104500000E49086000F00AF90BE0601C08B10120B8
:1045100000E0002028B940F2847209A10DA0FBF749
:10452000D5FE1CBD8400002049444C45000000001D
:10453000FD310008800000206C0000206400002095
:104540002E2E5C46726565524F54535C7461736BDA
:10455000732E63004572726F723A25732C25640DB9
:104560000A00000070B50546FFF796FC15B92C4807
:10457000006800E028460446201DFFF743FC78B998
:10458000E06A00EB8000274951F8200040B994F818
:104590002C10012088402449096881432248016089
:1045A000A06A18B104F11800FFF72CFC211D1F4868
:1045B000FFF766FCFFF7B4FC1D48006828B1FFF761
:1045C0006BFCFFF7BFF8FFF7ABFC154800688442AF
:1045D00024D117480068A8B11648006808B901201E
:1045E00000E0002028B940F2576213A117A0FBF7A2
:1045F0006DFE4FF0805019490860BFF34F8FBFF335
:104600006F8F0BE00948006815490968884203D19B
:1046100000200349086001E000F02CF870BD0000A4
:1046200050000020CC010020680000209C040020E5
:104630006C000020880000202E2E5C4672656552BA
:104640004F54535C7461736B732E63004572726FC9
:10465000723A25732C25640D0A00000004ED00E079
:104660006000002002480068401C01490860704753
:104670008800002010B51B48006818B101201A49B5
:1046800008602DE000201849086018480068B0FA5A
:1046900080F0C0F11F0404EB8400154951F820009C
:1046A00008B1012000E0002028B940F6F62211A14F
:1046B00015A0FBF70BFE04EB84010D4A02EB810011
:1046C00041684968416000F1080142688A4202D1AC
:1046D0004168496841604168C9680F4A116000BF7C
:1046E00010BD000088000020740000206800002039
:1046F000CC0100202E2E5C46726565524F54535CEF
:104700007461736B732E63004572726F723A257316
:104710002C25640D0A000000500000201CB5224822
:10472000014609780191FF2102461170014609787E
:1047300000919DF8001001F050011C4A11700721F2
:104740001B4A116009E01A490968491E184A11609C
:104750009DF800104906090E00919DF8001001F027
:1047600080018029EFD0124909680902104A1160BE
:104770001146098801F4E06111600B4A019911703A
:104780000C48006840F470000A4908600846006858
:1047900040F070400860FFF757FC002006490860B1
:1047A000FBF738FD00201CBD00E400E0BC00002049
:1047B000C000002020ED00E0B800002010B500BFD0
:1047C000502080F31188BFF34F8FBFF36F8F00BF6E
:1047D00000F084FB18B14FF080500449086000BF1E
:1047E000002080F3118800BF10BD000004ED00E040
:1047F0002DE9F84305460E4690460DB1012000E034
:10480000002028B94FF4C4720DA112A0FBF75EFD81
:104810000EB9002701E005FB06F707F15400FFF78A
:10482000E7F8044644B104F1540943464A46314688
:1048300028460094FEF7F6FC2046BDE8F883000009
:104840002E2E5C46726565524F54535C71756575CA
:10485000652E63004572726F723A25732C25640DC4
:104860000A0000002DE9FF4782B005460E461F46AC
:104870004FF0000A2C462CB940F2DC4261A166A040
:10488000FBF724FD0EB9206C08B9012000E00020E0
:1048900028B940F2DD425BA15FA0FBF717FD00F0F5
:1048A00007FB08B9049808B9012000E0002028B9E6
:1048B0004FF49C6253A158A0FBF708FD00BFFFF71F
:1048C000EBFAD4F83890B9F1000F3DD0D4F80C8051
:1048D00031462046FEF7E4FBDFB9A9F10100A063F1
:1048E000206810B9FFF72EF96060206908B901202F
:1048F00000E0002010BB04F1100000F00BFCE8B158
:104900004FF0805048490860BFF34F8FBFF36F8F5F
:1049100014E0C4F80C80606A08B9012000E00020AF
:1049200060B904F1240000F0F5FB38B14FF080507D
:104930003D490860BFF34F8FBFF36F8FFFF7F0FA69
:10494000012006B0BDE8F087049818B9FFF7E8FA2F
:104950000020F6E7BAF1000F04D16846FFF786FDA4
:104960004FF0010AFFF7DCFAFFF77CFEFFF794FA3D
:1049700094F94400401C10B9002084F8440094F9D4
:104980004500401C10B9002084F84500FFF7C8FA24
:1049900004A9684600F00CFA40BB2046FEF756FD1D
:1049A000F0B1206830B9FFF777FA6068FFF706FDCD
:1049B000FFF7B6FA04F124000499FFF7A7FC20469C
:1049C000FEF7CDFF00F000FC00287FF478AF4FF039
:1049D000805015490860BFF34F8FBFF36F8F6EE7AC
:1049E0002046FEF7BCFF00F0EFFB68E72046FEF72D
:1049F000B6FF00F0E9FB2046FEF728FD0028EED0C8
:104A000000209EE72E2E5C46726565524F54535C23
:104A100071756575652E63004572726F723A257304
:104A20002C25640D0A00000004ED00E070B5054679
:104A30000E462C462CB940F21B121EA122A0FBF7F9
:104A400045FCFFF729FAD4E90F12206801FB0200A8
:104A500060600020A0632068A060E06B401E226CB4
:104A6000216800FB0210E060FF2084F8440084F815
:104A700045009EB9206908B9012000E00020A8B9CE
:104A800004F1100000F046FB80B14FF08050124955
:104A90000860BFF34F8FBFF36F8F07E004F1100082
:104AA000FFF7C4F904F12400FFF7C0F9FFF738FA63
:104AB000012070BD2E2E5C46726565524F54535CCA
:104AC00071756575652E63004572726F723A257354
:104AD0002C25640D0A00000004ED00E02DE9FF43E1
:104AE00083B0064688461D464FF0000934462CB96F
:104AF00040F2D92260A165A0FBF7E8FBB8F1000FF6
:104B000001D1206C08B9012000E0002028B940F252
:104B1000DA2259A15DA0FBF7D9FB022D02D1E06B8F
:104B2000012801D1012000E0002028B940F2DB2259
:104B300051A156A0FBF7CAFB00F0BAF908B90598D5
:104B400008B9012000E0002028B940F2DE224AA185
:104B50004EA0FBF7BBFB00BFFFF79EF9A06BE16B1C
:104B6000884201D3022D38D12A4641462046FEF71D
:104B7000ACFA0746A06C68B129462046FEF782FCD5
:104B800028B34FF0805045490860BFF34F8FBFF303
:104B90006F8F1CE0606A08B9012000E0002068B94E
:104BA00004F1240000F0B6FA88B14FF080503B4980
:104BB0000860BFF34F8FBFF36F8F08E03FB14FF036
:104BC000805036490860BFF34F8FBFF36F8FFFF7F8
:104BD000A7F9012007B0BDE8F083059818B9FFF7E1
:104BE0009FF90020F6E7B9F1000F04D101A8FFF703
:104BF0003DFC4FF00109FFF793F9FFF733FDFFF795
:104C00004BF994F94400401C10B9002084F844008A
:104C100094F94500401C10B9002084F84500FFF7C6
:104C20007FF905A901A800F0C3F8F0B92046FEF706
:104C30001AFCA0B104F110000599FFF767FB2046AC
:104C4000FEF78DFE00F0C0FA002885D14FF08050AD
:104C500012490860BFF34F8FBFF36F8F7CE7204688
:104C6000FEF77DFE00F0B0FA76E72046FEF777FE0D
:104C700000F0AAFA0020ADE72E2E5C467265655260
:104C80004F54535C71756575652E63004572726F84
:104C9000723A25732C25640D0A00000004ED00E033
:104CA0002DE9F05F80468A4615461E4644462CB9DB
:104CB00040F29F3235A13AA0FBF708FBBAF1000F92
:104CC00001D1206C08B9012000E0002028B94FF480
:104CD00068722EA132A0FBF7F9FA022E02D1E06B26
:104CE000012801D1012000E0002028B940F2A132C2
:104CF00026A12BA0FBF7EAFAFFF7B6F900BF502177
:104D0000EFF3118081F31188BFF34F8FBFF36F8FE3
:104D100000BF0746A06BE16B884201D3022E2BD166
:104D200094F945B0324651462046FEF7CEF90BF1D4
:104D30000100C8B9A06C40B131462046FEF7A2FB85
:104D4000B8B1B5B10120286013E0606A08B901204C
:104D500000E0002068B904F1240000F0DBF940B164
:104D60003DB10120286004E00BF1010040B284F85D
:104D700045004FF0010901E04FF0000900BF87F343
:104D8000118800BF4846BDE8F09F00002E2E5C460B
:104D9000726565524F54535C71756575652E63007D
:104DA0004572726F723A25732C25640D0A0000005B
:104DB0002DE9F04104460D462CB940F6CB3219A13D
:104DC0001DA0FBF783FA2DB940F6CC3215A11AA02D
:104DD000FBF77CFAFFF760F81B4807682868401C5F
:104DE00008B9002619E0194920680968884204D0EA
:104DF0006068B84201D801260FE06068381A296857
:104E0000884209D228686168791A401A28602046C9
:104E1000FFF72CFB002600E00126FFF781F8304663
:104E2000BDE8F0812E2E5C46726565524F54535C8E
:104E30007461736B732E63004572726F723A2573DF
:104E40002C25640D0A00000064000020780000207A
:104E50002DE9FF4F85B0804689461746DDE912AB44
:104E6000B800FEF7C5FD064656B15C20FEF7C0FD52
:104E700004460CB1266304E03046FFF789F800E0F1
:104E800000247CB10020CDE900ABCDE902403A46D8
:104E900049464046089BFEF7DDF92046FEF740F8FC
:104EA000012501E04FF0FF35284609B0BDE8F08F3D
:104EB0000549096809B9012005E00449096809B9EB
:104EC000022000E0002070476C00002088000020D5
:104ED0000149086870470000640000202DE9F04196
:104EE0004FF0000841480068002872D1404800682F
:104EF000451C3F480560EDB93E480068006808B9A8
:104F0000012000E0002028B940F6D9123AA13FA0C4
:104F1000FBF7DCF937480768404800683549086006
:104F20003E4807603E480068401C3D490860FEF767
:104F300009FC00BF3B48006885423CD300BF2D48B8
:104F40000068006808B9012000E0002020B14FF09F
:104F5000FF30344908602DE026480068C068C46806
:104F60006668B54202D22F48066023E0201DFEF796
:104F700049FFA06A18B104F11800FEF743FF94F846
:104F80002C100120884028490968084326490860F8
:104F9000E16A01EB8101254A02EB8100211DFEF748
:104FA0006FFF2349E06A0968C96A8842C7D34FF096
:104FB0000108C4E700BF1E480068C06A00EB80001B
:104FC0001A4951F82000012801D94FF0010805E0E5
:104FD000FFE718480068401C16490860164800683A
:104FE00008B14FF001084046BDE8F081880000207C
:104FF00064000020540000202E2E5C46726565522D
:105000004F54535C7461736B732E63004572726FFF
:10501000723A25732C25640D0A0000005800002008
:10502000780000208000002068000020CC010020D3
:1050300050000020700000207400002070B505466C
:105040002C460026002D4BD026480068844201D112
:10505000012000E0002028B940F6C76222A127A065
:10506000FBF734F9206D28B940F6C9621EA123A0D0
:10507000FBF72CF9206D401E2065E16CE06A884248
:105080002ED0206D60BB201DFEF7BCFE78B9E06A13
:1050900000EB80001D4951F8200040B994F82C1015
:1050A000012088401A490968814319480160E06C71
:1050B000E062E06AC0F12000A06194F82C100120A9
:1050C000884013490968084311490860E16A01EB07
:1050D00081010E4A02EB8100211DFEF7D1FE01265F
:1050E000304670BD500000202E2E5C467265655221
:1050F0004F54535C7461736B732E63004572726F0F
:10510000723A25732C25640D0A000000CC010020A2
:105110006800002070B50646F068C4682CB940F6F7
:1051200061321AA11EA0FBF7D1F804F11800FEF7B6
:1051300069FE1F480068A8B9201DFEF763FE94F8B9
:105140002C10012088401B49096808431949086050
:10515000E16A01EB8101184A02EB8100211DFEF793
:105160008FFE04E004F118011448FEF789FE14498B
:10517000E06A0968C96A884204D9012501201149F9
:10518000086000E00025284670BD00002E2E5C4619
:10519000726565524F54535C7461736B732E630078
:1051A0004572726F723A25732C25640D0A00000057
:1051B0008800002068000020CC010020740400203A
:1051C000500000207400002070B5002400263448F0
:1051D000006828B94FF4FD6232A137A0FBF776F8DA
:1051E000FEF75AFE2E480068401E2D49086008460A
:1051F000006800284FD13448006800284BD024E0D4
:105200003248C068C46804F11800FEF7FBFD201D99
:10521000FEF7F8FD94F82C10012088402C4909680D
:1052200008432B490860E16A01EB8101294A02EB3E
:105230008100211DFEF724FE2749E06A0968C96A3A
:10524000884202D30120254908602048006808B937
:10525000012000E000200028D2D00CB1FEF772FA45
:105260001F48056865B100BFFFF738FE10B1012087
:105270001A4908606D1E002DF6D1002018490860FB
:105280001648006838B10126300716490860BFF398
:105290004F8FBFF36F8FFEF743FE304670BD0000A7
:1052A000880000202E2E5C46726565524F54535C78
:1052B0007461736B732E63004572726F723A25735B
:1052C0002C25640D0A0000006000002074040020FA
:1052D00068000020CC010020500000207400002055
:1052E0007000002004ED00E02DE9F04106460027A3
:1052F00034462EB940F2E26220A125A0FAF7E6FF7B
:10530000FEF7B2FE00BF5021EFF3118081F3118848
:10531000BFF34F8FBFF36F8F00BF05462046FEF7E8
:10532000D7FA20B31E480068E0B91E49E06A096850
:10533000C96A884200D30127201DFEF763FD94F857
:105340002C10012088401849096808431649086054
:10535000E16A01EB8101154A02EB8100211DFEF794
:105360008FFD04E004F118011148FEF789FD00BF2C
:1053700085F3118800BF3846BDE8F0812E2E5C46CB
:10538000726565524F54535C7461736B732E630086
:105390004572726F723A25732C25640D0A00000065
:1053A000880000205000002068000020CC01002070
:1053B000740400201CB50024FDF70EFE0B480068A5
:1053C00058B10B481F2100234FF48272CDE9001021
:1053D00008A10A48FFF73CFD04462CB940F23312FD
:1053E00007A10DA0FAF772FF20461CBD9400002013
:1053F00098000020546D72205376630045390008F0
:105400002E2E5C46726565524F54535C74696D650F
:1054100072732E63000000004572726F723A25733A
:105420002C25640D0A0000002DE9FF4704460D46B7
:1054300016461F46DDF830804FF000092CB94FF4B6
:10544000D37217A11CA0FAF741FF1F48006810B3E0
:10545000009501960294062D15DAFFF729FD022822
:1054600008D100234246694617480068FFF736FB1B
:10547000814610E000231A46694613480068FFF78A
:105480002DFB814607E000233A4669460E48006836
:10549000FFF706FC8146484604B0BDE8F0870000EF
:1054A0002E2E5C46726565524F54535C74696D656F
:1054B00072732E63000000004572726F723A25739A
:1054C0002C25640D0A0000009400002010B500296E
:1054D0000AD00878002807D005487844FBF7D6FCA6
:1054E000002801D0002010BD0248784410BD000003
:1054F000420900003A0900000808A0F500114FEA2F
:105500003101704743004FEAD30C4FEA3C0C434053
:105510001FBF40070CF1605113F0FE4F70471CF0A5
:10552000006F03D100200CF0004170470CF00043E5
:1055300043EA507010B540EACC0000F05DF900BFBE
:10554000000000924FEA0001FFF7D6BF4FF0004184
:105550004FF00000A1F500217047401058BFC0F186
:105560004040491058BFC1F140418142EFF30080F3
:10557000704700004FF47F0C1CEAD0121EBF1CEADB
:10558000D11392EA0C0F93EA0C0F00F0858090EA99
:10559000010F48BF42F4807240F4000C41F4000057
:1055A0002CF07F4120F07F4000B58142A2EB030246
:1055B0000FF2081CACEB504EC0F100009EF800E06A
:1055C0004FEA4E0E00FB0EFC38BF49004FEA2C1C80
:1055D00002F5FA020CFB0EF34FEACE1E4FEA112C35
:1055E0004FEAC1210EEB635E42EB22420EFB0CFC44
:1055F0004FEA1C5300FB03114FEA112C4FEA013113
:105600000EFB0CFC4FEADC4C00FB0C11C14228BF26
:1056100009184CEB03335DF804EB10EB410143EB4D
:10562000C250B2F57C0F38BF704729D512F0F00F89
:105630001CBF00F1C04000F0004070470081828331
:105640008485868788898B8C8D8E8F919293959691
:1056500097999A9C9D9FA0A2A3A5A7A8AAACAEB01B
:10566000B2B3B5B7B9BCBEC0C2C5C7C9CCCED1D420
:10567000D7D9DCDFE2E6E9ECF0F3F7FAFE00000050
:105680004FEA400C0CF1807CBCF17E4F28BF704784
:10569000B0F1C04000F0F6B890EA010F0CEAD11367
:1056A00048BF42F48072624538BF634507D213F4A5
:1056B0007F0F16D080EA010000F00040704710B55F
:1056C00000F09AF8097EFC3E00F005B880EA01007F
:1056D00000F00040704780EA010000F0004000F058
:1056E000D1B812F47F0F04BF0248704780EA01006E
:1056F00000F0C8B80000C07F50EA010C00F1138030
:105700001CF5000F58BFBCF5000F01D4884270474C
:1057100007D710F5000F58BF11F5000F15D48842B8
:105720007047894270471CF5000F04D5BCF5000F87
:10573000F7D5814270474FF0807C1CEB400F38BF9B
:105740001CEB410F01D28142704710B500F054F8B4
:10575000922449004FF000504FF08051FFF7FDBEFA
:1057600010F0004148BF4042B0FA80F310FA03F253
:10577000C3F19D030BD051EAC35101EB1220530634
:1057800038BF704700F1010008BF20F001007047EA
:1057900050EA010C00F113801CF5000F58BFBCF556
:1057A000000F01D48842704707D710F5000F58BF8B
:1057B00011F5000F15D488427047894270471CF5D7
:1057C000000F04D5BCF5000FF7D5814270474FF0AC
:1057D000807C1CEB400F38BF1CEB410F01D2814293
:1057E000704710B500F008F8922449004FF00050BF
:1057F0004FF08051FFF7B1BE0EF1020E2EF0030EF6
:105800005EF8044B244204D44FEA4102B2F17F4FC8
:1058100011D84FEA4003B3F17F4F0CD80ED14FEAB5
:10582000D07CB2F17F4F0CEB4C0C0CF1020C08BF9A
:105830004CEBD17C04E04FF0080C01E04FEAD17C46
:105840000CEB4C0324FA03F404F00704B4F1040C49
:1058500006D20EEB840CBDE810404CF0010C604702
:10586000DFE80CF0070802024FF00040A0F58000CE
:1058700010BD0846420018BFD2F1807288BF00F008
:10588000004010BDFF2141EAD050C005704751EAE9
:10589000000C00F113801CF5000F58BFBCF5000F81
:1058A00001D48142704707D711F5000F58BF10F59A
:1058B000000F15D481427047894270471CF5000FD4
:1058C00004D5BCF5000FF7D5884270474FF0807CB7
:1058D0001CEB410F38BF1CEB400F01D288427047D0
:1058E00080EA010081EA000180EA0100FFF779BF48
:1058F000FAF7A2BF00000000000000000000000056
:1059000000000404040404040004000000140A0A53
:105910000000000000000000000014143F140A3FC3
:105920000A0A000000041E1505060C14150F0400D9
:10593000000012150D0A142C2A1200000000040A9F
:105940000A1E1515093600000002020100000000C1
:1059500000000000002010080808080808102000B7
:1059600000020408080808080804020000000004F7
:10597000150E0E150400000000000404041F0404AA
:10598000040000000000000000000000000202010E
:1059900000000000001F00000000000000000000E8
:1059A00000000000000200000010080808040402C3
:1059B0000202010000000E1111111111110E000060
:1059C0000000040604040404040E000000000E118C
:1059D00011080402011F000000000E11100C10102D
:1059E000110E00000000080C0A0A091E0818000029
:1059F00000001F01010F1010110E000000000E0921
:105A0000010F1111110E000000001F090804040409
:105A10000404000000000E11110E1111110E0000FF
:105A200000000E1111111E10120E000000000000E7
:105A3000040000000004000000000000000400005A
:105A400000040400002010080402040810200000D4
:105A5000000000001F00001F0000000000020408FA
:105A6000102010080402000000000E1111080404A8
:105A70000004000000000E111915151D011E000084
:105A8000000004040C0A0A1E1233000000000F126A
:105A9000120E1212120F000000001E11010101016E
:105AA000110E000000000F1212121212120F00004D
:105AB00000001F120A0E0A02121F000000001F122F
:105AC0000A0E0A020207000000001C12010139112F
:105AD000120C000000003312121E121212330000CA
